:10077900E4FAEF6405703343F620C2F8C2F9D2FAFD
:1007890043E180C2FCD2FBADF8EDC413135403FD61
:10079900AFE2AB07EB7E007802C333CE33CED8F994
:1007A9007C002DFBEC3EAF03FE22EF640670344360
:1007B900F640D2F8C2F9D2FA43E180C2FCD2FBADCD
:1007C900F8EDC413135403FDAFE27A00AB07EB7ED7
:1007D900007802C333CE33CED8F97C002DFBEC3E32
:0307E900FEAF035D
:0107EC0022EA
:10063B008E088F09C3E50994FBE5089401400CD2A1
:10064B00947F1C120A607F3C0206D8C3E50994FB19
:10065B00E50894015016C3E50994EFE508940140B1
:10066B000BD2947F0A120A607F648061C3E5099400
:10067B00EFE50894015016C3E50994E3E5089401EE
:10068B00400BD2947F09120A607F648040C3E50956
:10069B0094E3E50894015016C3E50994D7E5089453
:1006AB0001400BD2947F08120A607F64801FC3E560
:1006BB000994D7E5089401501AC3E50994C9E508D4
:1006CB009401400FD2947F07120A607F64120C9B37
:1006DB00C29422C3E50994C9E50894015003120C96
:0206EB00FA22F1
:0905800007560000000000000015
:1009D100750DAAE4F50CE4F50BE50DC2907D157CCF
:1009E100007F17120B99D290E50D25E0F50D7D15CD
:1009F1007C007F2B120B99050BE50BC3940840D9A2
:100A0100750DAA7D157C007F17120B99050CE50C5D
:070A1100C3940340C1D29021
:010A180022BB
:02097D008F0BDE
:10097F00E4F50CE4F50D7456250CF8E630E70BC2E0
:10098F0090E50BFD7C007F248009C290E50BFD7C78
:10099F00007F17120B99D2907456250CF8C000E601
:1009AF0025E0D000F6E50BFD7C007F0F120B9905BB
:1009BF000DE50DC3940840BE050CE50CC394034030
:0109CF00B275
:0109D0002204
:100BE8008F088C098D0AD2937F14120C9BC2A775AB
:100BF80056C87557E08508581209D1AF0A12097D01
:050C0800D2A7C29322F7
:1008C60020910D0554E554B47803E4F554C2002292
:1008D600200038D200E554D394234012E554D39433
:1008E60050500BE52925E0F5295329FE8010E554E3
:1008F600D394504010E52925E0F529432901053A0E
:10090600E4F55380020553E4F554220553E553C339
:0C091600943C4007E4F53AD200F5322290
:100B0600E53A64087030F53A742B2532F8A629E5E3
:100B1600327009E52BB4C80475320122E532B401FE
:100B260009E52CB4E00475320222E532B40204D29F
:070B3600068000E4F5322205
:040922008C0C8D0D9F
:100926007556C87557E08F58E4F50EE4F50F745602
:10093600250EF8E630E70AC2A2AD0DAC0C7F248086
:1009460008C2A2AD0DAC0C7F17120B99D2A2745639
:10095600250EF8C000E625E0D000F6AD0DAC0C7F04
:100966000F120B99050FE50FC3940840C1050EE55C
:060976000EC3940340B51E
:01097C002258
:100C9B00AE071FEE60107C137D88ED1DAA0470015A
:060CAB001C4A60EC80F41D
:010CB1002220
:100B9900E4FBFAEFF582C3EB9582EA94005018E47E
:100BA900FEEEC39DEC6480F874809850030E80F1CA
:070BB9000BBB00010A80DC08
:010BC0002212
:100C3100E4FDFCC3ED9FEC9E5015E4FBFA0BBB00F9
:0F0C4100010AEB64644A70F50DBD00010C80E4FC
:010C50002281
:100C8300E4FDFCC3ED9FEC9E500DE4FB0BBB04FCA9
:070C93000DBD00010C80EC17
:010C9A002237
:100B3D00E4F9E4FAFBC3EB9FEA9E50070BBB0001FF
:100B4D000A80F209B932EBE4F9209215E4FAFBC3FD
:100B5D00EB9DEA9C50070BBB00010A80F209B932EC
:010B6D00E89F
:010B6E002264
:02058900C11A95
:0D000E00120C6AD21AE4F54A7F14020C9B12
:100CEA00120D27AF36AE3512063B120A19020ACE8A
:100BC1008E088F098C0A8D0BEBFD7C007FC1120909
:100BD10022C2A2D2A3AD0BAC0AAF09AE08120B3DE3
:070BE100D2A2D2A3C28522BB
:0E0DEA00D285D2A2C2A3120B3DD2A2D2A32266
:100ACE00C216C205C20AC218E4F524F53EF533F586
:100ADE0037F538F53BF53CF54DF54EF539F547C292
:100AEE0004C20FF54BC211F54CC201F534C209C256
:080AFE001AF54AC215F5252284
:0E0DF800D216D205E4F524F53EC21AF54A22C1
:0A0E1100C2A47F05120C9BD2A4229C
:100CD80053A2BF75985A758920758BFD758DFDD205
:020CE8008E225A
:080003008F993099FDC299228A
:100C0D008B618A628963AF051DEF6017AB61056368
:100C1D00E563AA627002056214F912041DFF120049
:040C2D000380E3223B
:03058B00011E014D
:040A5C00D2947F0EA3
:020A60008F0AFB
:100A6200C2A07F647E00120C31D2A07F967E00125B
:100A72000C31E4F50BE50BC3950A5016D2A17F1495
:100A82007E00120C83C2A17F147E00120C83050B20
:020A920080E3FF
:010A9400223F
:100C5100C294C2A1C2A07F5E7E01120C83D2A07F8A
:090C61005E7E01120C83D2942284
:100A1900E51E24FE6025047039120A5C7F2D120C34
:100A29009B7F12120A607F32120C9B7F0B120A60A5
:100A39007F46120C9BC294751E0222120A5C7F2803
:100A4900120C9B7F0C120A607F3C120C9BC294759E
:030A59001E012259
:0F0CFA00D2947F06120A607F50120C9BC2942284
:100CB200D2947F02120A607F5A120C9BC2947F1E4A
:030CC200020C9B86
:0F0D0900D2947F1B120A607F8C120C9BC2942223
:0F0D1800D2947F03120A607FB4120C9BC2942204
:100CC500D2947F16120A607FB4120C9BC2947F14D3
:030CD500020C9B73
:0F0D2700D2947F17120A607F3C120C9BC2942259
:100C6A00D2947F18120A607F3C120C9B7F0D120AE5
:090C7A00607F46120C9BC294221B
:0F0D3600D2947F13120A607F50120C9BC294223A
:0F0D4500D2947F14120A607F78120C9BC2942202
:0F0D5400D2947F13120A607F96120C9BC29422D6
:0F0D6300D2947F09120A607F78120C9BC29422EF
:0B0E0600120A5C7F78120C9BC2942241
:0F0D7200D2947F04120A607F96120C9BC29422C7
:0F0D8100D2947F03120A607F8C120C9BC29422C3
:0F0D9000D2947F02120A607F78120C9BC29422C9
:0F0D9F00D2947F07120A607F50120C9BC29422DD
:0F0DAE00D2947F0B120A607F32120C9BC29422E8
:0F0DBD00D2947F0F120A607F32120C9BC29422D5
:0F0DCC00D2947F0C120A607F50120C9BC29422AB
:0F0DDB00D2947F0D120A607F50120C9BC294229B
:0407ED008C108D11CE
:1007F1007E007C2B7D33120553E47B0CFAF9F81251
:1008010004C18F158E148D138C12C3E49FFFE49ED7
:10081100F55D8F5FAE10AF11EE3395E0FDFCE47B2B
:100821000BFAF9F8120436E47B0CFAF9F81204C158
:100831008F198E188D178C16C3E49FFFE49EF55E09
:100841008F60758911855D8C855F8A855E8D856078
:0D0851008BD2A9C28CD2ABD28ED2BBD2AF5B
:01085E002277
:100B6F007E007C2B7D33120553E47B0CFAF9F812CF
:100B7F0004C18F1D8E1C8D1B8C1AC3E49FFFE49E36
:090B8F00F55D8F5F758921C28CB0
:010B9800223A
:040E1B0043870122E6
:10058E00C104C116C10FC111014B00014C00C10ABB
:10059E00C118013300023B0000014700013900027F
:1005AE004D0000C10101240002370000013E000190
:1005BE004900015500012A0002450000072B0000EA
:1005CE000000000000C106013200012900013A00BE
:1005DE00C180015300015400014100013F0002514E
:1005EE000000C103014201013D000235000001344B
:1005FE0000C115012500C10202270000C1100243EF
:10060E000000C1090126FFC112014800C105014ABF
:10061E0000C107C114024F0000014000C10EC1937A
:0C062E00C10DC18BC197C10CC108C119DE
:100A95007D647C007F011207EDC205C216120C5160
:100AA500C294D284D283D290D287D2A7C293D2A243
:100AB500D2A3D2A6D281D28CD2853080032087FAE8
:090AC500D210E4F543F54480F180
:03000B0002001ED2
:10001E00C0E0C0F0C083C082C0D075D000C000C0A8
:10002E0001C002C003C004C005C006C007855D8CB8
:10003E00855F8A0546E54670020545C394D0E545C1
:10004E00940750030201397545007546007F06126C
:10005E0007798E358F36300A16E52AC39405500F70
:10006E00C2A67D1C7C007FC5120BE8D2A6052A30E5
:10007E001816E555C39405500FC2A67D1C7C007F53
:10008E00C4120BE8D2A6055530151CE525C3940401
:10009E00501520A512C2A67D1C7C007FC2120BE853
:1000AE00D2A6120D360525301A11054AE54AC3941B
:1000BE00054008754A00C21A120DF8300F35E54B8F
:1000CE00C39404502ED20420A517C2A67D1C7C001A
:1000DE002009047FC380027FC6120BE8D2A6120D40
:1000EE0018054BE54BC394044009754B00C20FC273
:1000FE0004C207301135E54CC39404502ED20420AF
:10010E00A517C2A67D1C7C002009047FC380027F38
:10011E00C6120BE8D2A6120CC5054CE54CC39404CE
:10012E004009754C00C211C204C20730A51AE5423F
:10013E0070167F05120C9B30A50E754201753D00A1
:10014E00C213754000120ACE300C2220171520045F
:10015E00127B1C7D807C0C7FE87E03120BC1D217B4
:10016E00120CEA300402D219C20C120ACE20A522B9
:10017E00E53D701E20101B2014187F05120C9B20CD
:10018E00A510754200753D01C20DD21A754A007553
:10019E00400A30082C30171D20101A201417AF36C5
:1001AE00AE3512063B7DA07C0F7FE87E03120DEA72
:1001BE00C21712000E301907C219D21A754A00C2A0
:1001CE0008308003208708D2107543007544003034
:1001DE0010190544E54470020543D394D0E54394C9
:1001EE00074008C210754300754400308208D214CF
:1001FE00754F007550003014190550E5507002050A
:10020E004FC394D0E54F94074008C214754F007544
:10021E00500020840302033B20830302033B20058E
:10022E000302033BE52414603114606D2402600365
:10023E000202F630800320871B200418053EE53E9F
:10024E00C3940250030202F6753E00752401120C8F
:10025E00B20202F6753E000202F6308003208714C9
:10026E000533E533C39402400E7533007524021234
:10027E000D0980037533000538E53870020537C364
:10028E0094A0E537940F4060752400753300753ED9
:10029E0000753700753800804F30800320871405B5
:1002AE0039E539C39401400E753900D20FD211D2FF
:1002BE00078003753900053CE53C7002053BC3948D
:1002CE00A0E53B940F4021752400753E0075330068
:1002DE00753700753800753B00753C00754D03751C
:1002EE004E2075390075470020811AE534C39433CA
:1002FE0050130534E53494324018D20FD2117534B0
:10030E0033D209800D30810A200707753400C20FE1
:10031E00C211C3E53594015004D2158010D3E536D1
:10032E009400E53594014005C21575250030164838
:10033E00208417053FE53FC394034018D218C20A24
:10034E00753F0B20030ED201800AC2187555007539
:10035E003F00C2012083170541E541C394034018B5
:10036E00D20AC21875410B20030ED201800AC20AAE
:10037E00752A00754100C20130013C0552E55270EC
:10038E00020551C394A0E551940F402BC201755143
:10039E0000755200D203752400753E00753300754A
:1003AE003700753800753B00753C00754D03754E72
:1003BE002075390075470030870320801ED3E5284D
:1003CE009488E527941340137F03120C9B30870308
:1003DE00208008D2027527007528000528E52870B0
:1003EE00020527C39488E5279413400875271375D3
:1003FE002889C202D007D006D005D004D003D0027F
:0F040E00D001D000D0D0D082D083D0F0D0E03257
:03001B0002085F79
:10085F00C0E0C0F0C083C082C0D075D000C000C05F
:10086F0001C002C003C004C005C006C007855E8D6D
:10087F0085608B1208C6120B06300620C206E52DC6
:10088F002439601224DF601224277010D2127548A9
:10089F0000120ACE8006D20C8002D208D007D006F2
:1008AF00D005D004D003D002D001D000D0D0D08258
:0708BF00D083D0F0D0E0323D
:030000000206ED08
:0C06ED00787FE4F6D8FD758163020734C5
:10041D00BB010689828A83E0225002E722BBFE02DD
:09042D00E32289828A83E4932210
:10043600E88FF0A4CC8BF0A42CFCE98EF0A42CFC65
:100446008AF0EDA42CFCEA8EF0A4CDA8F08BF0A4E3
:100456002DCC3825F0FDE98FF0A42CCD35F0FCEB42
:100466008EF0A4FEA9F0EB8FF0A4CFC5F02ECD3907
:0F047600FEE43CFCEAA42DCE35F0FDE43CFC2274
:1004850075F008758200EF2FFFEE33FECD33CDCC2E
:1004950033CCC58233C5829BED9AEC99E5829840B1
:1004A5000CF582EE9BFEED9AFDEC99FC0FD5F0D68E
:1004B500E4CEFBE4CDFAE4CCF9A88222B800C1B9B8
:1004C5000059BA002DEC8BF084CFCECDFCE5F0CBF6
:1004D500F97818EF2FFFEE33FEED33FDEC33FCEB2F
:1004E50033FB10D703994004EB99FB0FD8E5E4F9EA
:1004F500FA227818EF2FFFEE33FEED33FDEC33FCD7
:10050500C933C910D7059BE99A4007EC9BFCE99ACA
:10051500F90FD8E0E4C9FAE4CCFB2275F010EF2F0F
:10052500FFEE33FEED33FDCC33CCC833C810D7070F
:100535009BEC9AE899400AED9BFDEC9AFCE899F84A
:0E0545000FD5F0DAE4CDFBE4CCFAE4C8F922DD
:10055300EC8EF0A4CCC5F0CCCDF8EFA4CEC5F02D35
:10056300FDE43CFCE8A42EC8C5F03DFDE43CFCEFF3
:0D057300A4FFE5F028FEE43DFDE43CFC2281
:1006F900020A95E493A3F8E493A34003F68001F278
:1007090008DFF48029E493A3F85407240CC8C33301
:10071900C4540F4420C8834004F456800146F6DFD0
:10072900E4800B0102040810204080900580E47EDB
:10073900019360BCA3FF543F30E509541FFEE493C5
:10074900A360010ECF54C025E060A840B8E493A38C
:10075900FAE493A3F8E493A3C8C582C8CAC583CAB7
:10076900F0A3C8C582C8CAC583CADFE9DEE780BE6F
:01063A0000BF
:00000001FF
