:10086D00E4FAEF6405703343F620C2F8C2F9D2FA08
:10087D0043E180C2FCD2FBADF8EDC413135403FD6C
:10088D00AFE2AB07EB7E007802C333CE33CED8F99F
:10089D007C002DFBEC3EAF03FE22EF64067034436B
:1008AD00F640D2F8C2F9D2FA43E180C2FCD2FBADD8
:1008BD00F8EDC413135403FDAFE27A00AB07EB7EE2
:1008CD00007802C333CE33CED8F97C002DFBEC3E3D
:0308DD00FEAF0368
:0108E00022F5
:10072F008E558F56C3E55694A4E5559402400CD2CE
:10073F00947F1C120B2F7F3C0207CCC3E55694A26B
:10074F00E55594025016C3E5569491E55594024031
:10075F000BD2947F0A120B2F7F648061C3E55694EE
:10076F008FE55594025016C3E556947CE5559402D7
:10077F00400BD2947F09120B2F7F648040C3E55644
:10078F00947AE55594025016C3E5569463E5559453
:10079F0002400BD2947F08120B2F7F64801FC3E59A
:1007AF00569461E5559402501AC3E5569450E55599
:1007BF009402400FD2947F07120B2F7F64120D2CDF
:1007CF00C29422C3E556944EE55594025003120D80
:0207DF009E2258
:09067A0007080000000000000068
:100A5E007569AAE4F568E4F567E569C2907D157CD1
:100A6E00007F17120C2ED290E56925E0F5697D15F1
:100A7E007C007F2B120C2E0567E567C3940840D9C6
:100A8E007569AA7D157C007F17120C2E0568E56826
:070A9E00C3940340C1D29094
:010AA500222E
:020A0A008F67F4
:100A0C00E4F568E4F56974082568F8E630E70BC28C
:100A1C0090E567FD7C007F248009C290E567FD7C32
:100A2C00007F17120C2ED29074082568F8C000E6CF
:100A3C0025E0D000F6E567FD7C007F0F120C2E053B
:100A4C0069E569C3940840BE0568E568C394034032
:010A5C00B2E7
:010A5D002276
:100CA1008C658D66D293D2A6C2A77508C87509E076
:100CB1008F0A120A5EAF66120A0AD2A7C293D2A69F
:010CC1002210
:1009530020910D0553E553B47803E4F553C2002207
:10096300200038D200E553D394234012E553D394A7
:1009730050500BE52825E0F5285328FE8010E55359
:10098300D394504010E52825E0F528432801053984
:10099300E4F55280020552E4F553220552E552C3B1
:0C09A300943C4007E4F539D200F5312205
:100B6400E53964087030F539742A2531F8A628E58A
:100B7400317009E52AB4C80475310122E531B401A4
:100B840009E52BB4E00475310222E531B40204D244
:070B9400078000E4F53122A7
:0409AF008C618D6268
:1009B3007508C87509E08F0AE4F563E4F564740803
:1009C3002563F8E630E70AC2A2AD62AC617F2480FA
:1009D30008C2A2AD62AC617F17120C2ED2A27408BA
:1009E3002563F8C000E625E0D000F6AD62AC617F78
:1009F3000F120C2E0564E564C3940840C10563E53A
:060A030063C3940340B53B
:010A090022CA
:100D2C00AE071FEE60107C137D88ED1DAA047001C8
:060D3C001C4A60EC80F48B
:010D4200228E
:100C2E00E4FBFAEFF582C3EB9582EA94005018E4E8
:100C3E00FEEEC39DEC6480F874809850030E80F134
:070C4E000BBB00010A80DC72
:010C5500227C
:100CC200E4FDFCC3ED9FEC9E5015E4FBFA0BBB0068
:0F0CD200010AEB64644A70F50DBD00010C80E46B
:010CE10022F0
:100D1400E4FDFCC3ED9FEC9E500DE4FB0BBB04FC17
:070D24000DBD00010C80EC85
:010D2B0022A5
:100BD200E4F9E4FAFBC3EB9FEA9E50070BBB00016A
:100BE2000A80F209B932EBE4F9209215E4FAFBC368
:100BF200EB9DEA9C50070BBB00010A80F209B93257
:010C0200E809
:010C030022CE
:02068300C1179D
:0D000E00120CFBD217E4F5497F14020D2CF3
:100D8E00120DBCAF35AE3412072F120AA6020B9B02
:100C56008E5D8F5E8C5F8D60EBFD7C007FC112091F
:100C6600AFC2A2D2A3AD60AC5FAF5EAE5D120BD2D7
:070C7600D2A2D2A3C2852225
:0E0E7F00D285D2A2C2A3120BD2D2A2D2A3223B
:100B9B00C215C206C20AC216E4F523F53DF532F5BD
:100BAB0036F537F53AF53BF54CF54DF538F546C2CC
:100BBB0005C20EF54AC210F54BC201F533C209301E
:070BCB000204C214F524220C
:0E0E8D00D215D206E4F523F53DC217F5492231
:0A0EA600C2A47F0A120D2CD2A42270
:100D7C0053A2BF75985A758920758BFD758DFDD260
:020D8C008E22B5
:080003008F993099FDC299228A
:100C7D008B178A188919AF051DEF6017AB1705196A
:100C8D00E519AA187002051814F9120444FF120090
:040C9D000380E322CB
:03068500011A0156
:040B2B00D2947F11D0
:020B2F008F57DE
:100B3100C2A07F647E00120CC2D2A07F967E0012FA
:100B41000CC2E4F558E558C395575016D2A17F144D
:100B51007E00120D14C2A17F147E00120D140558DF
:020B610080E32F
:010B6300226F
:100CE200C294C2A1C2A07F5E7E01120D14D2A07F67
:090CF2005E7E01120D14D2942261
:100AA600E51A24FE6025047039120B2B7F28120DDF
:100AB6002C7F12120B2F7F32120D2C7F0B120B2F55
:100AC6007F46120D2CC294751A0222120B2B7F231D
:100AD600120D2C7F0C120B2F7F3C120D2CC294751D
:030AE6001A0122D0
:0F0D9E00D2947F06120B2F7F50120D2CC294227D
:100D4300D2947F02120B2F7F5A120D2CC2947F1E56
:030D5300020D2C62
:100D5600D2947F1B120B2F7F8C120D2CC2947F28EE
:030D6600020D2C4F
:0F0DAD00D2947F03120B2F7FB4120D2CC294220D
:100D6900D2947F16120B2F7FB4120D2CC2947F14CC
:030D7900020D2C3C
:0F0DBC00D2947F17120B2F7F3C120D2CC2942262
:100CFB00D2947F18120B2F7F3C120D2C7F0D120BF1
:090D0B002F7F50120D2CC294221E
:0F0DCB00D2947F13120B2F7F50120D2CC2942243
:0F0DDA00D2947F14120B2F7F78120D2CC294220B
:0F0DE900D2947F13120B2F7F96120D2CC29422DF
:0F0DF800D2947F09120B2F7F78120D2CC29422F8
:0B0E9B00120B2B7F78120D2CC294224A
:0F0E0700D2947F04120B2F7F96120D2CC29422CF
:0F0E1600D2947F03120B2F7F8C120D2CC29422CB
:0F0E2500D2947F02120B2F7F78120D2CC29422D1
:0F0E3400D2947F07120B2F7F50120D2CC29422E5
:0F0E4300D2947F0B120B2F7F32120D2CC29422F0
:0F0E5200D2947F0F120B2F7F32120D2CC29422DD
:0F0E6100D2947F0C120B2F7F50120D2CC29422B3
:0F0E7000D2947F0D120B2F7F50120D2CC29422A3
:0408E1008C658D662F
:1008E5007E007C2B7D3312057AE47B0CFAF9F81235
:1008F50004E88F6A8E698D688C67C3E49FFFE49E68
:10090500F5138F15AE65AF66EE3395E0FDFCE47B20
:100915000BFAF9F812045DE47B0CFAF9F81204E815
:100925008F6E8E6D8D6C8C6BC3E49FFFE49EF5140A
:100935008F1675891185138C85158A85148D8516F5
:0D0945008BD2A9C28CD2ABD28ED2BBD2AF66
:010952002282
:100C04007E007C2B7D3312057AE47B0CFAF9F81212
:100C140004E88F128E118D108C0FC3E49FFFE49EA5
:090C2400F5138F15758921D28C9E
:010C2D0022A4
:040EB0004387012251
:10068800C105C115C10EC110014A00014B00C10AC4
:10069800C116013200023A0000014600013800028A
:1006A8004C0000C10101230002360000013D000199
:1006B800480001540001290002440000072A0000F4
:1006C8000000000000C107013100012800013900C5
:1006D800C180015200015300014000013E00025058
:1006E8000000C104014101013C0002340000013353
:1006F80000C114012400C10302260000C10F0242F8
:100708000000C1090125FFC111014700C1060149C7
:1007180000C108C113024E0000013F00C10DC19283
:06072800C10CC18BC1826F
:100AE9007D647C007F011208E1C206C215120CE286
:100AF900C294D284D283D290D2877D1C7C007FE8B5
:100B0900120CA1D2A7C293D2A2D2A3D2A6D281D2C9
:100B19008CD2853080032087FAD20FE4F542F54361
:020B290080F159
:03000B0002001ED2
:10001E00C0E0C0F0C083C082C0D075D000C000C0A8
:10002E0001C002C003C004C005C006C00785138C02
:10003E0085158A0545E54570020544C394D0E5440F
:10004E009407500302015D754400754500053FE5B8
:10005E003F94105016E54164016005E53CB4010E75
:10006E007D1C7C007FC1120CA18003753F1F200CEC
:10007E000E0547E547D394044005754707D20B7F1D
:10008E000612086D8E348F35300A12E529C3940599
:10009E00500B7D1C7C007FC5120CA1052930161259
:1000AE00E554C39405500B7D1C7C007FC4120CA13B
:1000BE00055430141BE524C394045014300211204F
:1000CE00A50E7D1C7C007FC2120CA1120DCB052447
:1000DE0030171420A5110549E549C394054008754C
:1000EE004900C217120E8D300E31E54AC3940450EA
:1000FE002AD20520A5137D1C7C002009047FC38015
:10010E00027FC6120CA1120DAD054AE54AC3940436
:10011E004009754A00C20EC205C208301031E54BC7
:10012E00C39404502AD20520A5137D1C7C002009FF
:10013E00047FC380027FC6120CA1120D69054BE528
:10014E004BC394044009754B00C210C205C208305F
:10015E00A51DE54170193002167F05120D2C30A534
:10016E000E754101753C00C212753F00120B9BE5E6
:10017E00416401702330112020121D30021A7B1CA5
:10018E007DA07C0F7FD07E07120C56120D8E754708
:10019E0000C211D212753F1F20A51AE53C70163011
:1001AE0002137F05120D2C20A50B754100753C0125
:1001BE00C20C753F0AE53C6401702D300B2A200CF1
:1001CE0027300224200F2120131EAF35AE34120724
:1001DE002F7D107C277F707E17120E7F12000E75FA
:1001EE003F1FC20BD20CC211308003208708D20FE2
:1001FE00754200754300300F190543E54370020543
:10020E0042D394D0E54294074008C20F7542007560
:10021E004300308208D213754E00754F003013190B
:10022E00054FE54F7002054EC394D0E54E9407403E
:10023E0008C213754E00754F00208403020362201E
:10024E008303020362200603020362E52314603176
:10025E0014606D2402600302031D30800320871B8F
:10026E00200518053DE53DC39402500302031D759C
:10027E003D00752301120D4302031D753D0002035F
:10028E001D3080032087140532E532C39402400EE0
:10029E00753200752302120D568003753200053734
:1002AE00E53770020536C394A0E536940F406075AD
:1002BE002300753200753D00753600753700804F8E
:1002CE003080032087140538E538C39401400E753D
:1002DE003800D20ED210D2088003753800053BE5E7
:1002EE003B7002053AC394A0E53A940F4021752362
:1002FE0000753D00753200753600753700753A0091
:10030E00753B00754C03754D207538007546002001
:10031E00811AE533C3943350130533E533943240D9
:10032E0018D20ED210753333D209800D30810A20C7
:10033E000807753300C20EC210C3E5349401500491
:10034E00D2148010D3E5359400E53494014005C2F3
:10035E0014752400301548208417053EE53EC394DD
:10036E00034018D216C20A753E0B20040ED201802D
:10037E000AC216755400753E00C20120831705404F
:10038E00E540C394034018D20AC21675400B2004F0
:10039E000ED201800AC20A752900754000C20130D2
:1003AE00013C0551E55170020550C394A0E55094EF
:1003BE000F402BC201755000755100D204752300F9
:1003CE00753D00753200753600753700753A00754B
:1003DE003B00754C03754D2075380075460030870F
:1003EE000320801ED3E5279488E526941340137FBF
:1003FE0003120D2C308703208008D203752600755A
:10040E0027000527E52770020526C39488E5269464
:10041E00134008752613752789C203D007D006D05E
:10042E0005D004D003D002D001D000D0D0D082D0DD
:06043E0083D0F0D0E03293
:03001B000205A734
:1005A700C0E0C0F0C083C082C0D075D000C000C01A
:1005B70001C002C003C004C005C006C00785148D72
:1005C70085168B120953120B6420070302065FC2BC
:1005D70007E52C2439601224DF606124277079D263
:1005E70011754700120B9B806F20026C2085242019
:1005F7000F2120131E3014067D207C4E80047D10B1
:100607007C277F707E17120E7FD2177D2A7C007F92
:10061700C980243085427B2A3014067D887C13806C
:10062700047DA07C0F7FD07E07120C56C217120BD9
:100637009B7D2A7C007FC7120CA1801C7D2A7C0031
:1006470020020E7FE8120CA1D202D20B753C00806B
:10065700077F10120CA1C202D007D006D005D00424
:10066700D003D002D001D000D0D0D082D083D0F038
:03067700D0E0329E
:030000000207E113
:0C07E100787FE4F6D8FD75816E020828D0
:10044400BB010689828A83E0225002E722BBFE02B6
:09045400E32289828A83E49322E9
:10045D00E88FF0A4CC8BF0A42CFCE98EF0A42CFC3E
:10046D008AF0EDA42CFCEA8EF0A4CDA8F08BF0A4BC
:10047D002DCC3825F0FDE98FF0A42CCD35F0FCEB1B
:10048D008EF0A4FEA9F0EB8FF0A4CFC5F02ECD39E0
:0F049D00FEE43CFCEAA42DCE35F0FDE43CFC224D
:1004AC0075F008758200EF2FFFEE33FECD33CDCC07
:1004BC0033CCC58233C5829BED9AEC99E58298408A
:1004CC000CF582EE9BFEED9AFDEC99FC0FD5F0D667
:1004DC00E4CEFBE4CDFAE4CCF9A88222B800C1B991
:1004EC000059BA002DEC8BF084CFCECDFCE5F0CBCF
:1004FC00F97818EF2FFFEE33FEED33FDEC33FCEB08
:10050C0033FB10D703994004EB99FB0FD8E5E4F9C2
:10051C00FA227818EF2FFFEE33FEED33FDEC33FCAF
:10052C00C933C910D7059BE99A4007EC9BFCE99AA3
:10053C00F90FD8E0E4C9FAE4CCFB2275F010EF2FE8
:10054C00FFEE33FEED33FDCC33CCC833C810D707E8
:10055C009BEC9AE899400AED9BFDEC9AFCE899F823
:0E056C000FD5F0DAE4CDFBE4CCFAE4C8F922B6
:10057A00EC8EF0A4CCC5F0CCCDF8EFA4CEC5F02D0E
:10058A00FDE43CFCE8A42EC8C5F03DFDE43CFCEFCC
:0D059A00A4FFE5F028FEE43DFDE43CFC225A
:1007ED00020AE9E493A3F8E493A34003F68001F22F
:1007FD0008DFF48029E493A3F85407240CC8C3330D
:10080D00C4540F4420C8834004F456800146F6DFDB
:10081D00E4800B010204081020408090067AE47EEB
:10082D00019360BCA3FF543F30E509541FFEE493D0
:10083D00A360010ECF54C025E060A840B8E493A397
:10084D00FAE493A3F8E493A3C8C582C8CAC583CAC2
:10085D00F0A3C8C582C8CAC583CADFE9DEE780BE7A
:01072E0000CA
:00000001FF
