:1002F300C104C110C10AC10C014900014A00C1096E
:10030300C111013200023A00000145000138000228
:100313004B0000C10101230002360000013D000132
:10032300470001530001290002430000072A00008F
:100333000000000000C1060131000128000139005E
:10034300C180015100015200013F00013E00024FF4
:100353000000C10301400002340000013300C10F5B
:10036300012400C10202260000C10B02410000C1AA
:10037300080125FFC10D014600C105014800C10761
:09038300C10E024D0000013C0016
:100C2D007D647C007F3212049BD2A4D2A0C2B0C2DC
:060C3D009012001680FB7E
:03000B000209B037
:1009B000C0E0C0D085548C85568A0544E544700259
:1009C0000543C3940AE54394004008754300754409
:1009D00000B2A720A40E053CE53CC3946440057515
:0909E0003C00D2A4D0D0D0E032DA
:03001B000201815E
:10018100C0E0C0D075D000C00085558D85578B303B
:10019100B00EC2000552E55264787054F552805099
:1001A10020003CD200E552D3940F4015E552D39480
:1001B10050500EE52825E0F5285328FE05397551E4
:1001C10000E552D394504010E52825E0F528432856
:1001D10001053975510080020551755200801105E4
:1001E10051E551C3943C4008753900D20075310086
:1001F100E53964087032F539742A2531F8A628E505
:1002010031700AE52AB4C805753101801BE531B4A6
:10021100010AE52BB4E005753102800CE531B40229
:1002210004D206800075310030060DC206E52C248B
:0F0231003F7005C2A4753C00D000D0D0D0E032A1
:10042700E4FAEF6405703343F620C2F8C2F9D2FA52
:1004370043E180C2FCD2FBADF8EDC413135403FDB6
:10044700AFE2AB07EB7E007802C333CE33CED8F9E9
:100457007C002DFBEC3EAF03FE22EF6406703443B5
:10046700F640D2F8C2F9D2FA43E180C2FCD2FBAD22
:10047700F8EDC413135403FDAFE27A00AB07EB7E2C
:10048700007802C333CE33CED8F97C002DFBEC3E87
:03049700FEAF03B2
:01049A00223F
:100240008E618F62C3E56294F3E5619403400BD243
:10025000947F1C120A207F3C41DCC3E56294F2E5E6
:100260006194035016C3E56294DAE5619403400B90
:10027000D2947F0A120A207F648061C3E56294D918
:10028000E56194035016C3E56294CBE561940340A5
:100290000BD2947F09120A207F648040C3E56294E8
:1002A000CAE56194035016C3E56294B0E561940316
:1002B000400BD2947F08120A207F64801FC3E5623E
:1002C00094AFE5619403501CC3E5629497E5619493
:1002D000034011D2947F07120A207F647E00120B24
:1002E0006CC29422C3E5629495E5619403500312B5
:0302F0000CC52218
:09038C000712000000000000004F
:1008EA00751FAAE4F51EE4F51DE51FC2907F507E30
:1008FA0000120BA0D290E51F25E0F51F7F967E001F
:10090A00120BA0051DE51DC3940840DD751FAA7FC3
:10091A00507E00120BA0051EE51EC3940340C7D2E9
:01092A00903C
:01092B0022A9
:10092C00755AAAE4F559E4F558E55AC2907F507E01
:10093C0000120BA0D290E55A25E0F55A7F967E0066
:10094C00120BA00558E558C3940840DD755AAA7FD0
:10095C00507E00120BA00559E559C3940340C7D231
:01096C0090FA
:01096D002267
:10096E00755DAAE4F55CE4F55BE55DC2907F507EB3
:10097E0000120BA0D290E55D25E0F55D7F967E001E
:10098E00120BA0055BE55BC3940840DD755DAA7F85
:10099E00507E00120BA0055CE55CC3940340C7D2E9
:0109AE0090B8
:0109AF002225
:10050D00D293D2A6C2A77512C87513E07514C11285
:10051D00092CE4F563E4F56474122563F8E630E71D
:10052D0006C2907F788004C2907F507E00120BB877
:10053D00D29074122563F8C000E625E0D000F67F56
:10054D00327E00120BB80564E564C3940840C905FA
:0E055D0063E563C3940340BDD2A7C293D2A648
:01056B00226D
:10056C00D293C2A6C2A77512C87513E07514C21235
:10057C00092CE4F565E4F56674122565F8E630E7B8
:10058C0006C2907F788004C2907F507E00120BB818
:10059C00D29074122565F8C000E625E0D000F67FF5
:1005AC00327E00120BB80566E566C3940840C90597
:0E05BC0065E565C3940340BDD2A7D2A6C293E5
:0105CA00220E
:1005CB00D293C2A6C2A77512C87513E07514C312D5
:1005DB0008EAE4F567E4F56874122567F8E630E796
:1005EB0006C2907F788004C2907F507E00120BB8B9
:1005FB00D29074122567F8C000E625E0D000F67F94
:10060B00327E00120BB80568E568C3940840C90533
:0E061B0067E567C3940340BDD2A7D2A6C29381
:0106290022AE
:10062A00D293C2A6C2A77512C87513E07514C41274
:10063A00096EE4F569E4F56A74122569F8E630E7AB
:10064A0006C2907F788004C2907F507E00120BB859
:10065A00D29074122569F8C000E625E0D000F67F32
:10066A00327E00120BB8056AE56AC3940840C905D0
:0E067A0069E569C3940340BDD2A7D2A6C2931E
:01068800224F
:10068900D293C2A6C2A77512C87513E07514C51214
:10069900096EE4F56BE4F56C7412256BF8E630E746
:1006A90006C2907F788004C2907F507E00120BB8FA
:1006B900D2907412256BF8C000E625E0D000F67FD1
:1006C900327E00120BB8056CE56CC3940840C9056D
:0E06D9006BE56BC3940340BDD2A7D2A6C293BB
:0106E70022F0
:1006E800D293C2A6C2A77512C87513E07514C612B4
:1006F800096EE4F56DE4F56E7412256DF8E630E7E1
:1007080006C2907F788004C2907F507E00120BB89A
:10071800D2907412256DF8C000E625E0D000F67F6F
:10072800327E00120BB8056EE56EC3940840C90509
:0E0738006DE56DC3940340BDD2A7D2A6C29357
:010746002290
:1007470020910D0552E552B47803E4F552C2002218
:10075700200038D200E552D394234012E552D394B7
:1007670050500BE52825E0F5285328FE8010E55268
:10077700D394504010E52825E0F528432801053992
:10078700E4F55180020551E4F552220551E551C3C4
:0C079700943C4007E4F539D200F5312213
:1009E900E53964087030F539742A2531F8A628E507
:1009F900317009E52AB4C80475310122E531B40121
:100A090009E52BB4E00475310222E531B40204D2C0
:070A1900068000E4F5312224
:100800007512C87513E07514C1E4F56FE4F57074E2
:1008100012256FF8E630E706C2A27F788004C2A2F4
:100820007F507E00120BB8D2A27412256FF8C00060
:10083000E625E0D000F67F327E00120BB80570E5A9
:0F08400070C3940840C9056FE56FC3940340BDB2
:01084F002286
:100850007512C87513E07514C1E4F571E4F572748E
:10086000122571F8E630E706C2A37F788004C2A3A0
:100870007F507E00120BB8D2A374122571F8C0000D
:10088000E625E0D000F67F327E00120BB80572E557
:0F08900072C3940840C90571E571C3940340BD5C
:01089F002236
:100B6C00EF1FAA0670011E4A60107C137D88ED1DD4
:0A0B7C00AA0470011C4A60E880F42E
:010B8600224C
:100BA000E4FDFCC3ED9FEC9E500DE4FB0BBB15FC7C
:070BB0000DBD00010C80ECFB
:010BB700221B
:100BB800E4FDFCC3ED9FEC9E500DE4FB0BBB2AFC4F
:070BC8000DBD00010C80ECE3
:010BCF002203
:100B2F00E4FDFCC3ED9FEC9E5015E4FBFA0BBB00FC
:0F0B3F00010AEB64644A70F50DBD00010C80E4FF
:010B4E002284
:100BD000E4FDFCC3ED9FEC9E500DE4FB0BBB04FC5D
:070BE0000DBD00010C80ECCB
:010BE70022EB
:100A8900E4FDE4FEFF0FBF00010EBE0FF8BFA0F5A5
:100A99000DBD32EEE4FD209212E4FEFF0FBF00010E
:0B0AA9000EBE27F8BF10F50DBD32EBAC
:010AB400221F
:100AB500E4FDE4FEFF0FBF00010EBE17F8BF70F5A1
:100AC5000DBD32EEE4FD209212E4FEFF0FBF0001E2
:0B0AD5000EBE2EF8BFE0F50DBD32EBA9
:010AE00022F3
:100C5900E4FFE4FDFC0DBD00010CBC3EF8BD80F5D0
:040C69000FBF32EE99
:010C6D002264
:02039500C11293
:100C9200120D2B120B4FD212E4F5487F14FE020BF9
:010CA2006CE5
:100C4300120CA3120CE7AF35AE341202401207A305
:060C5300E4F547020A551A
:100CA300120800C2A2D2A3120A89D2A2D2A3C28579
:010CB300221E
:100CB400120850D2A2C2A3120C59D2A2D2A3C28546
:010CC400220D
:0E0D2B00D285D2A2C2A3120AB5D2A2D2A322AE
:100A5500C210C205C209C211E4F523F53DF532F510
:100A650036F537F53AF53BF54BF54CF538F545C216
:100A750004C20AF549C20CF54AC201F533C208C2DF
:040A85000FF5242223
:0E0D3900D210D205E4F523F53DC212F5482292
:100C6E0075DCC075730075741DE573F5D1E574F50B
:020C7E00D92279
:1008A000EF1460191460251460312403703B7573D4
:1008B0000075740DE573F5D2E574F5DA22757301F0
:1008C000757400E573F5D3E574F5DB227573007577
:1008D0007480E573F5D5E574F5DD227573007574E4
:0A08E00040E573F5D6E574F5DE225D
:08000300E4FF1208A0020C6EDC
:04049B008C088D0933
:10049F007E007C2B7D33120154E47B0CFAF9F812A9
:1004AF0000C28F0D8E0C8D0B8C0AC3E49FFFE49E50
:1004BF00F5548F56AE08AF09EE3395E0FDFCE47BA3
:1004CF000BFAF9F8120037E47B0CFAF9F81200C2B4
:1004DF008F118E108D0F8C0EC3E49FFFE49EF55588
:1004EF008F5775891185548C85568A85558D8557FB
:0D04FF008BD2A9D28CD2ABD28ED2BBD2AFA1
:01050C0022CC
:100AE1007E007C2B7D33120154E47B0CFAF9F81261
:100AF10000C28F1C8E1B8D1A8C19C3E49FFFE49ECC
:090B0100F5548F56758921D28C40
:010B0A0022C8
:0400160043870122F9
:100C800053A2BF75985A758920758BFD758DFDD25D
:020C90008E22B2
:08000E008F993099FDC299227F
:100B0B008B5E8A5F8960AF051DEF6017AB5E05607A
:100B1B00E560AA5F7002055F14F912001EFF120058
:040B2B000E80E32233
:03039700017701EA
:020A20008F75D0
:100A2200C2A07F647E00120B2FD2A07F967E00129E
:100A32000B2FE4F576E576C395755016D2A17F1497
:100A42007E00120BD0C2A17F147E00120BD005765D
:020A520080E33F
:010A5400227F
:100B8700C294C2A1C2A07F5E7E01120BD0D2A07F09
:090B97005E7E01120BD0D2942203
:1007A300E57724FE602F04704BD2947F0E120A204B
:1007B3007F3C7E00120B6C7F12120A207F327E0078
:1007C300120B6C7F0B120A207F467E00120B6CC249
:1007D3009475770222D2947F0E120A207F237E0023
:1007E300120B6C7F0C120A207F3C7E00120B6CC232
:0507F30094757701225E
:100CC500D2947F06120A207F507E00120B6CC294CC
:010CD50022FC
:100BE800D2947F02120A207F5A7E00120B6CC294A4
:070BF8007F0A7E00020B6C76
:100BFF00D2947F1B120A207F8C7E00120B6CC29442
:070C0F007F1E7E00020B6C4A
:100CD600D2947F03120A207FB47E00120B6CC2945A
:010CE60022EB
:100C1600D2947F16120A207FB47E00120B6CC29407
:070C26007F147E00020B6C3D
:100CE700D2947F17120A207F3C7E00120B6CC294AD
:010CF70022DA
:100B4F00D2947F18120A207F3C7E00120B6C7F0D0F
:0D0B5F00120A207F507E00120B6CC29422FF
:100CF800D2947F13120A207F507E00120B6CC2948C
:010D080022C8
:100D0900D2947F14120A207F787E00120B6CC29451
:010D190022B7
:100D1A00D2947F13120A207F967E00120B6CC29423
:010D2A0022A6
:0300000002039B5D
:0C039B00787FE4F6D8FD7581770203E25C
:10001E00BB010689828A83E0225002E722BBFE02E0
:09002E00E32289828A83E4932213
:10003700E88FF0A4CC8BF0A42CFCE98EF0A42CFC68
:100047008AF0EDA42CFCEA8EF0A4CDA8F08BF0A4E6
:100057002DCC3825F0FDE98FF0A42CCD35F0FCEB45
:100067008EF0A4FEA9F0EB8FF0A4CFC5F02ECD390A
:0F007700FEE43CFCEAA42DCE35F0FDE43CFC2277
:1000860075F008758200EF2FFFEE33FECD33CDCC31
:1000960033CCC58233C5829BED9AEC99E5829840B4
:1000A6000CF582EE9BFEED9AFDEC99FC0FD5F0D691
:1000B600E4CEFBE4CDFAE4CCF9A88222B800C1B9BB
:1000C6000059BA002DEC8BF084CFCECDFCE5F0CBF9
:1000D600F97818EF2FFFEE33FEED33FDEC33FCEB32
:1000E60033FB10D703994004EB99FB0FD8E5E4F9ED
:1000F600FA227818EF2FFFEE33FEED33FDEC33FCDA
:10010600C933C910D7059BE99A4007EC9BFCE99ACD
:10011600F90FD8E0E4C9FAE4CCFB2275F010EF2F12
:10012600FFEE33FEED33FDCC33CCC833C810D70712
:100136009BEC9AE899400AED9BFDEC9AFCE899F84D
:0E0146000FD5F0DAE4CDFBE4CCFAE4C8F922E0
:10015400EC8EF0A4CCC5F0CCCDF8EFA4CEC5F02D38
:10016400FDE43CFCE8A42EC8C5F03DFDE43CFCEFF6
:0D017400A4FFE5F028FEE43DFDE43CFC2284
:1003A700020C2DE493A3F8E493A34003F68001F233
:1003B70008DFF48029E493A3F85407240CC8C33357
:1003C700C4540F4420C8834004F456800146F6DF26
:1003D700E4800B01020408102040809002F3E47EC1
:1003E700019360BCA3FF543F30E509541FFEE4931B
:1003F700A360010ECF54C025E060A840B8E493A3E2
:10040700FAE493A3F8E493A3C8C582C8CAC583CA0C
:10041700F0A3C8C582C8CAC583CADFE9DEE780BEC4
:01039A000062
:00000001FF
