:10038A00C105C118C110C112014E00014F00C10DB3
:10039A00C11A013500023D0000014A00013B00027A
:1003AA00500000C10101240002390000013F000190
:1003BA004C00015A00012C0002480000072D0000E1
:1003CA000000000000C107013400012B00013C00BD
:1003DA00C180015800015900014200014100025444
:1003EA000000C10401450002370000013600C117B0
:1003FA00012500C10302270000C11102460000C105
:10040A000C0126FFC113014B00C106014D00C10BAF
:10041A00C1140252000002290000C11BC115C10902
:10042A00C102C10802560000C116C10F02430000F2
:09043A00C18E014000C18AC11904
:10078000120A3A7D647C007F32120603D280D28145
:1007900043EC0343EB0353EAFC43E903D2AFD2A497
:1007A000D290C2947F0612058F8E378F38E4F529D8
:1007B000F52AC205C2A7C293D2827F03120A84D24D
:0D07C0008C300AFDD2E9C20A43870280F4A2
:03000B000201A14E
:1001A100C0E0C0F0C083C082C0D075D000C000C024
:1001B10001C002C003C004C005C006C007856A8C27
:1001C100856C8A0549E54970020548C3943CE548B8
:1001D100940040377F0612058F8E378F38301B12FF
:1001E100D3E5389433E53794035007C21B120B5EF5
:1001F1008013201B10C3E538945AE537940340055A
:10020100D21B120C0175480075490020800DC28275
:10021100D2917D1B7C007FC712001E20810DC282FE
:10022100D2917D1B7C007FE812001E30A60CD28289
:10023100C293C2A7C291C290D20A30052C052AE509
:100241002A70020529C39403E52994005008120B72
:100251006D120C0C8013C3E52A9478E529940040B3
:1002610008752900752A00C205301508120B7C1289
:100271000C0CC215300908120B8B120C0CC2093080
:100281000205120B9AC202301705120BA9C21730D0
:100291000805120BB8C208D007D006D005D004D08B
:1002A10003D002D001D000D0D0D082D083D0F0D002
:0202B100E03239
:03001B000202B32B
:1002B300C0E0C0F0C083C082C0D075D000C000C011
:1002C30001C002C003C004C005C006C007856B8D12
:1002D300856D8B120675120946200702616FC207EE
:1002E300E52F24F07002616A2428606F2427B40983
:1002F30000507990030025E0500205837361126179
:100303002061246130614161526159616F616512FD
:100313000C0C7D2A7C007FC112001E804FD21780F7
:1003230030D205120C0C755A00C215800AD215750D
:100333002900752A00C205752C00C209802ED20936
:10034300752900752A00C205755A00C215801DD291
:1003530008120C0C8016120BC78011120C0CC2165B
:10036300800A120BD68005120C0CD216D007D006C9
:10037300D005D004D003D002D001D000D0D0D08299
:07038300D083D0F0D0E0327E
:03003B00020003BD
:08000300C2E953EAFCD2E93224
:10058F00E4FAEF6405703343F620C2F8C2F9D2FAE9
:10059F0043E180C2FCD2FBADF8EDC413135403FD4D
:1005AF00AFE2AB07EB7E007802C333CE33CED8F980
:1005BF007C002DFBEC3EAF03FE22EF64067034434C
:1005CF00F640D2F8C2F9D2FA43E180C2FCD2FBADB9
:1005DF00F8EDC413135403FDAFE27A00AB07EB7EC3
:1005EF00007802C333CE33CED8F97C002DFBEC3E1E
:0305FF00FEAF0349
:0106020022D5
:100452008E718F72C3E57294A4E5719402400BD23F
:10046200947F1C1208D97F3C81EEC3E57294A2E509
:100472007194025016C3E5729491E5719402400B97
:10048200D2947F0A1208D97F648061C3E572948F87
:10049200E57194025016C3E572947CE571940240B2
:1004A2000BD2947F091208D97F648040C3E572940D
:1004B2007AE57194025016C3E5729463E571940271
:1004C200400BD2947F081208D97F64801FC3E57263
:1004D2009461E5719402501AC3E5729450E57194E7
:1004E20002400FD2947F071208D97F64120A84C295
:1004F2009422C3E572944EE57194025003120AF5F8
:0105020022D6
:09044300075B000000000000004E
:10084A007511AAE4F510E4F50FE511C2907D157C47
:10085A00007F171209A7D290E51125E0F5117D1541
:10086A007C007F2B1209A7050FE50FC3940840D916
:10087A007511AA7D157C007F171209A70510E510CE
:07088A00C3940340C1D290AA
:010891002244
:02072C008F0F2D
:10072E00E4F510E4F511745B2510F8E630E70BC222
:10073E0090E50FFD7C007F248009C290E50FFD7CC3
:10074E00007F171209A7D290745B2510F8C000E63F
:10075E0025E0D000F6E50FFD7C007F0F1209A705FE
:10076E0011E511C3940840BE0510E510C394034073
:01077E00B2C8
:01077F002257
:10001E008C0D8D0ED293C2A7755BC8755CE08F5D9B
:0D002E0012084AAF0E12072CD2A7C293226F
:1006750020910D0559E559B47803E4F559C20022D6
:10068500200038D200E559D394234012E559D3947C
:1006950050500BE52B25E0F52B532BFE8010E5592B
:1006A500D394504010E52B25E0F52B432B01053C59
:1006B500E4F55880020558E4F559220558E558C374
:0C06C500943C4007E4F53CD200F53422E0
:10094600E53C64087030F53C742D2534F8A62BE59B
:10095600347009E52DB4C80475340122E534B401B8
:1009660009E52EB4E00475340222E534B40204D25B
:07097600078000E4F53422C4
:0406D1008C1C8D1DD3
:1006D500755BC8755CE08F5DE4F51EE4F51F745B22
:1006E500251EF8E630E70AC2A2AD1DAC1C7F2480AA
:1006F50008C2A2AD1DAC1C7F171209A7D2A2745B5C
:10070500251EF8C000E625E0D000F6AD1DAC1C7F27
:100715000F1209A7051FE51FC3940840C1051EE573
:060725001EC3940340B561
:01072B0022AB
:100A8400AE071FEE60107C137D88ED1DAA04700173
:060A94001C4A60EC80F436
:010A9A002239
:1009A700E4FBFAEFF582C3EB9582EA94005018E472
:1009B700FEEEC39DEC6480F874809850030E80F1BE
:0709C7000BBB00010A80DCFC
:0109CE002206
:100A1A00E4FDFCC3ED9FEC9E5015E4FBFA0BBB0012
:0F0A2A00010AEB64644A70F50DBD00010C80E415
:010A3900229A
:100A6C00E4FDFCC3ED9FEC9E500DE4FB0BBB04FCC2
:070A7C000DBD00010C80EC30
:010A83002250
:1007CD00E4F9E4FAFBC3EB9FEA9E50070BBB000173
:1007DD000A80F209B932EBE4F9209215E4FAFBC371
:1007ED00EB9DEA9C50070BBB00010A80F209B93260
:0107FD00E813
:0107FE0022D8
:02044C00C11CD1
:0D000E00120A53D21CE4F54D7F14020A843F
:100AE500120B22AF38AE3712045212089202090EC9
:1009CF008E628F638C648D65EBFD7C007FC1120698
:1009DF00D1C2A2D2A3AD65AC64AF63AE621207CD34
:0709EF00D2A2D2A3C28522AF
:0E0BE500D285D2A2C2A31207CDD2A2D2A322E1
:10090E00C218C206C20DC21AE4F524F53FF535F53C
:10091E0039F53AF53DF53EF550F551F53BF54AC240
:10092E0005C210F54EC212F54FC201F536C20CC209
:08093E001CF54DC217F525223E
:0E0BF300D218D206E4F524F53FC21CF54D22BF
:0A0C0C00C2A47F05120A84D2A422BC
:100AC10075DCC075730075741DE573F5D1E574F5BA
:020AD100D92228
:10080000EF1460191460251460312403703B757374
:100810000075740DE573F5D2E574F5DA2275730190
:10082000757400E573F5D3E574F5DB227573007517
:100830007480E573F5D5E574F5DD22757300757484
:0A08400040E573F5D6E574F5DE22FD
:080C1600E4FF120800020AC10C
:040603008C128D13B5
:100607007E007C2B7D33120174E47B0CFAF9F8121F
:1006170000E28F178E168D158C14C3E49FFFE49E9E
:10062700F56A8F6CAE12AF13EE3395E0FDFCE47BF9
:100637000BFAF9F8120057E47B0CFAF9F81200E20A
:100647008F1B8E1A8D198C18C3E49FFFE49EF56BE0
:100657008F6D758911856A8C856C8A856B8D856D23
:0D0667008BD2A9C28CD2ABD28ED2BBD2AF47
:010674002263
:10097D007E007C2B7D33120174E47B0CFAF9F812A6
:10098D0000E28F698E688D678C66C3E49FFFE49EDD
:09099D00F56A8F6C758921D28C7A
:0109A600222E
:040C260043870122DD
:100AD30053A2BF75985A758920758BFD758DFDD20C
:020AE3008E2261
:080C1E008F993099FDC2992263
:1009F6008B6E8A6F8970AF051DEF6017AB6E057041
:100A0600E570AA6F7002056F14F912003EFF120C12
:040A16001E80E32239
:03044E0001750134
:0408D500D2947F0E2C
:0208D9008F0D81
:1008DB00C2A07F647E00120A1AD2A07F967E0012FD
:1008EB000A1AE4F50EE50EC3950D5016D2A17F142E
:1008FB007E00120A6CC2A17F147E00120A6C050ED8
:02090B0080E387
:01090D0022C7
:100A3A00C294C2A1C2A07F5E7E01120A6CD2A07FBC
:090A4A005E7E01120A6CD29422B6
:10089200E57524FE60250470391208D57F28120AF6
:1008A200847F121208D97F32120A847F0B1208D970
:1008B2007F46120A84C294757502221208D57F23DC
:1008C200120A847F0C1208D97F3C120A84C29475E2
:0308D2007501228B
:0F0AF500D2947F061208D97F50120A84C294222D
:100A9B00D2947F021208D97F5A120A84C2947F1E05
:030AAB00020A84B8
:0F0B0400D2947F1B1208D97F8C120A84C29422CC
:0F0B1300D2947F031208D97FB4120A84C29422AD
:100AAE00D2947F161208D97FB4120A84C2947F148E
:030ABE00020A84A5
:0F0B2200D2947F171208D97F3C120A84C2942202
:100A5300D2947F181208D97F3C120A847F0D1208A2
:090A6300D97F32120A84C29422E8
:0F0B3100D2947F131208D97F50120A84C29422E3
:0F0B4000D2947F141208D97F78120A84C29422AB
:0F0B4F00D2947F131208D97F96120A84C294227F
:0F0B5E00D2947F091208D97F78120A84C2942298
:0B0C01001208D57F78120A84C29422EA
:0F0B6D00D2947F041208D97F96120A84C2942270
:0F0B7C00D2947F031208D97F8C120A84C294226C
:0F0B8B00D2947F021208D97F78120A84C2942272
:0F0B9A00D2947F071208D97F50120A84C2942286
:0F0BA900D2947F0B1208D97F32120A84C2942291
:0F0BB800D2947F0F1208D97F32120A84C294227E
:0F0BC700D2947F0C1208D97F50120A84C2942254
:0F0BD600D2947F0D1208D97F50120A84C2942244
:03000000020503F3
:0C050300787FE4F6D8FD75817502054A8A
:10003E00BB010689828A83E0225002E722BBFE02C0
:09004E00E32289828A83E49322F3
:10005700E88FF0A4CC8BF0A42CFCE98EF0A42CFC48
:100067008AF0EDA42CFCEA8EF0A4CDA8F08BF0A4C6
:100077002DCC3825F0FDE98FF0A42CCD35F0FCEB25
:100087008EF0A4FEA9F0EB8FF0A4CFC5F02ECD39EA
:0F009700FEE43CFCEAA42DCE35F0FDE43CFC2257
:1000A60075F008758200EF2FFFEE33FECD33CDCC11
:1000B60033CCC58233C5829BED9AEC99E582984094
:1000C6000CF582EE9BFEED9AFDEC99FC0FD5F0D671
:1000D600E4CEFBE4CDFAE4CCF9A88222B800C1B99B
:1000E6000059BA002DEC8BF084CFCECDFCE5F0CBD9
:1000F600F97818EF2FFFEE33FEED33FDEC33FCEB12
:1001060033FB10D703994004EB99FB0FD8E5E4F9CC
:10011600FA227818EF2FFFEE33FEED33FDEC33FCB9
:10012600C933C910D7059BE99A4007EC9BFCE99AAD
:10013600F90FD8E0E4C9FAE4CCFB2275F010EF2FF2
:10014600FFEE33FEED33FDCC33CCC833C810D707F2
:100156009BEC9AE899400AED9BFDEC9AFCE899F82D
:0E0166000FD5F0DAE4CDFBE4CCFAE4C8F922C0
:10017400EC8EF0A4CCC5F0CCCDF8EFA4CEC5F02D18
:10018400FDE43CFCE8A42EC8C5F03DFDE43CFCEFD6
:0D019400A4FFE5F028FEE43DFDE43CFC2264
:10050F00020780E493A3F8E493A34003F68001F27B
:10051F0008DFF48029E493A3F85407240CC8C333ED
:10052F00C4540F4420C8834004F456800146F6DFBC
:10053F00E4800B010204081020408090038AE47EBF
:10054F00019360BCA3FF543F30E509541FFEE493B1
:10055F00A360010ECF54C025E060A840B8E493A378
:10056F00FAE493A3F8E493A3C8C582C8CAC583CAA3
:10057F00F0A3C8C582C8CAC583CADFE9DEE780BE5B
:0104510000AA
:00000001FF
