:1003DD00C105C116C10EC110014D00014E00C10C69
:1003ED00C117013500023D0000014900013B00022B
:1003FD004F0000C10101240002390000013F00013E
:10040D004B00015900012C0002470000072D000090
:10041D000000000000C107013400012B00013C0069
:10042D00C1800157000158000141000140000253F5
:10043D000000C10401440002370000013600C1155F
:10044D00012500C10302270000C10F02450000C1B4
:10045D000B0126FFC111014A00C106014C00C10A62
:10046D00C1120251000002290000C118C113C109B7
:10047D00C102C10802550000C114C10D02420000A5
:10080000120AA67D647C007F3212064DD28043EC32
:100810000143EB0153EAE043E901D2AFD2A4D29005
:10082000C2947F061205D98E378F38E4F529F52A50
:10083000C205D2A7C2937F03120B08300D09D293D1
:0C084000D2E9C20D4387021207FC80EFD2
:03000B000201A14E
:1001A100C0E0C0F0C083C082C0D075D000C000C024
:1001B10001C002C003C004C005C006C00785698C28
:1001C100856B8A0548E54870020547C3943CE547BD
:1001D100940040377F061205D98E378F38301812B8
:1001E100D3E5389433E53794035007C218120BE76F
:1001F1008013201810C3E538945AE537940340055D
:10020100D21812000E754700754800208031C205D2
:10021100C213C209C202C215C2080556E5567002D0
:100221000555C3943CE5559400403B120C8A7D1C56
:100231007C007FE8120A6575550075563D802730B0
:10024100141EC3E5569402E55594004013E55694F7
:100251003CE555940050097D1C7C007FC7120A655E
:1002610075550075560030052C052AE52A700205E2
:1002710029C39403E52994005008120BF6120C8A45
:100281008013C3E52A94B0E5299404400875290038
:10029100752A00C205301308120C05120C8AC2130C
:1002A100300908120C14120C8AC209300205120C12
:1002B10023C202301505120C32C215300805120C8A
:1002C10041C20820931C3014190543E5437002050F
:1002D10042D394C8E542940040087542007543003A
:1002E100D20DD007D006D005D004D003D002D00162
:0D02F100D000D0D0D082D083D0F0D0E03249
:03001B000202FEE0
:1002FE00C0E0C0F0C083C082C0D075D000C000C0C6
:10030E0001C002C003C004C005C006C007856A8DC7
:10031E00856C8B1206BF12095A20070261C2C207F2
:10032E00E52F24F0700261BB242860732427B409E2
:10033E0000400261C290034D25E0500205837361B7
:10034E005F616D6171617D618E619F61A661C26148
:10035E00B4120C8A7D2A7C007FC1120A658055D2A8
:10036E00158030D205120C8A755900C213800AD23C
:10037E0013752900752A00C205752C00C209803438
:10038E00D209752900752A00C205755900C213805D
:10039E0023D208120C8A801C120C50D20D8015121A
:1003AE000C8AC214800E120C5FD20D8007120C8ABA
:1003BE00D214D20DD007D006D005D004D003D0026F
:0F03CE00D001D000D0D0D082D083D0F0D0E03298
:03003B00020B7C39
:100B7C00C2E953EAE0201408C293754200754300A1
:010B8C003236
:1005D900E4FAEF6405703343F620C2F8C2F9D2FA9F
:1005E90043E180C2FCD2FBADF8EDC413135403FD03
:1005F900AFE2AB07EB7E007802C333CE33CED8F936
:100609007C002DFBEC3EAF03FE22EF640670344301
:10061900F640D2F8C2F9D2FA43E180C2FCD2FBAD6E
:10062900F8EDC413135403FDAFE27A00AB07EB7E78
:10063900007802C333CE33CED8F97C002DFBEC3ED3
:03064900FEAF03FE
:01064C00228B
:10049C008E708F71C3E57194A4E5709402400BD2F9
:1004AC00947F1C1209257F3CA138C3E57194A2E509
:1004BC007094025016C3E5719491E5709402400B50
:1004CC00D2947F0A1209257F648061C3E571948FF1
:1004DC00E57094025016C3E571947CE5709402406B
:1004EC000BD2947F091209257F648040C3E5719477
:1004FC007AE57094025016C3E5719463E57094022A
:10050C00400BD2947F081209257F64801FC3E571CC
:10051C009461E5709402501AC3E5719450E570949F
:10052C0002400FD2947F071209257F64120B08C278
:10053C009422C3E571944EE57094025003120B8D16
:01054C00228C
:09048D00075A0000000000000005
:100896007511AAE4F510E4F50FE511C2907D157CFB
:1008A600007F171209F2D290E51125E0F5117D15AA
:1008B6007C007F2B1209F2050FE50FC3940840D97F
:1008C6007511AA7D157C007F171209F20510E51037
:0708D600C3940340C1D2905E
:0108DD0022F8
:020776008F0FE3
:10077800E4F510E4F511745A2510F8E630E70BC2D9
:1007880090E50FFD7C007F248009C290E50FFD7C79
:10079800007F171209F2D290745A2510F8C000E6AB
:1007A80025E0D000F6E50FFD7C007F0F1209F20569
:1007B80011E511C3940840BE0510E510C394034029
:0107C800B27E
:0107C900220D
:100A65008C0D8D0ED293D2A6C2A7755AC8755BE0C0
:100A75008F5C120896AF0E120776D2A7C293D2A644
:010A8500224E
:1006BF0020910D0558E558B47803E4F558C200228F
:1006CF00200038D200E558D394234012E558D39434
:1006DF0050500BE52B25E0F52B532BFE8010E558E2
:1006EF00D394504010E52B25E0F52B432B01053C0F
:1006FF00E4F55780020557E4F558220557E557C32F
:0C070F00943C4007E4F53CD200F5342295
:10095A00E53C64087030F53C742D2534F8A62BE587
:10096A00347009E52DB4C80475340122E534B401A4
:10097A0009E52EB4E00475340222E534B40204D247
:07098A00078000E4F53422B0
:04071B008C1C8D1D88
:10071F00755AC8755BE08F5CE4F51EE4F51F745ADB
:10072F00251EF8E630E70AC2A2AD1DAC1C7F24805F
:10073F0008C2A2AD1DAC1C7F171209F2D2A2745AC7
:10074F00251EF8C000E625E0D000F6AD1DAC1C7FDD
:10075F000F1209F2051FE51FC3940840C1051EE5DE
:06076F001EC3940340B517
:010775002261
:100B0800AE071FEE60107C137D88ED1DAA047001EE
:060B18001C4A60EC80F4B1
:010B1E0022B4
:1009F200E4FBFAEFF582C3EB9582EA94005018E427
:100A0200FEEEC39DEC6480F874809850030E80F172
:070A12000BBB00010A80DCB0
:010A190022BA
:100A8600E4FDFCC3ED9FEC9E5015E4FBFA0BBB00A6
:0F0A9600010AEB64644A70F50DBD00010C80E4A9
:010AA500222E
:100AD800E4FDFCC3ED9FEC9E500DE4FB0BBB04FC56
:070AE8000DBD00010C80ECC4
:010AEF0022E4
:1007CA00E4F9E4FAFBC3EB9FEA9E50070BBB000176
:1007DA000A80F209B932EBE4F9209215E4FAFBC374
:1007EA00EB9DEA9C50070BBB00010A80F209B93263
:0107FA00E816
:0107FB0022DB
:02049600C1198A
:100AF0007D707C177FE87E03120C6E120ABFD2193C
:080B0000E4F54C7F14020B0820
:10001E007B1C7DA07C0F7FB07E04120A1A120BABE4
:0D002E00AF38AE3712049C1208DE020991B3
:100A1A008E618F628C638D64EBFD7C007FC112074F
:100A2A001BC2A2D2A3AD64AC63AF62AE611207CAA5
:070A3A00D2A2D2A3C2852263
:0E0C6E00D285D2A2C2A31207CAD2A2D2A3225A
:10099100C216C206C20CC217E4F524F53FF535F5BF
:1009A10039F53AF53DF53EF54FF550F53BF549C2C0
:1009B10005C20EF54DC210F54EC201F536C20B301F
:0709C1000004C215F5252218
:0E0C7C00D216D206E4F524F53FC219F54C223B
:0A0C8A00C2A47F0A120B08D2A422B4
:100B580075DCC075720075731DE572F5D1E573F526
:020B6800D92290
:10084C00EF1460191460251460312403703B757229
:10085C000075730DE572F5D2E573F5DA2275720148
:10086C00757300E572F5D3E573F5DB2275720075CF
:10087C007380E572F5D5E573F5DD2275720075733D
:0A088C0040E572F5D6E573F5DE22B3
:08000300E4FF12084C020B5847
:04064D008C128D136B
:100651007E007C2B7D33120174E47B0CFAF9F812D5
:1006610000E28F178E168D158C14C3E49FFFE49E54
:10067100F5698F6BAE12AF13EE3395E0FDFCE47BB1
:100681000BFAF9F8120057E47B0CFAF9F81200E2C0
:100691008F1B8E1A8D198C18C3E49FFFE49EF56A97
:1006A1008F6C75891185698C856B8A856A8D856CDE
:0D06B1008BD2A9D28CD2ABD28ED2BBD2AFED
:0106BE002219
:1009C8007E007C2B7D33120174E47B0CFAF9F8125B
:1009D80000E28F688E678D668C65C3E49FFFE49E96
:0909E800F5698F6B758921D28C31
:0109F10022E3
:0407FC00438701220C
:100B6A0053A2BF75985A758920758BFD758DFDD274
:020B7A008E22C9
:080C94008F993099FDC29922ED
:100A41008B6D8A6E896FAF051DEF6017AB6D056FFA
:100A5100E56FAA6E7002056E14F912003EFF120CCA
:040A61009480E32278
:03049800017401EB
:04092100D2947F0EDF
:020925008F0D34
:10092700C2A07F647E00120A86D2A07F967E001244
:100937000A86E4F50EE50EC3950D5016D2A17F1475
:100947007E00120AD8C2A17F147E00120AD8050EB3
:0209570080E33B
:01095900227B
:100AA600C294C2A1C2A07F5E7E01120AD8D2A07FE4
:090AB6005E7E01120AD8D29422DE
:1008DE00E57424FE60250470391209217F3C120B49
:1008EE00087F121209257F32120B087F0B12092581
:1008FE007F46120B08C294757402221209217F23BF
:10090E00120B087F0C1209257F3C120B08C294753E
:03091E007401223F
:0F0B8D00D2947F061209257F50120B08C29422C2
:100B1F00D2947F021209257F5A120B08C2947F1EAE
:030B2F00020B08AE
:100B3200D2947F1B1209257F8C120B08C2947F2846
:030B4200020B089B
:0F0B9C00D2947F031209257FB4120B08C2942252
:100B4500D2947F161209257FB4120B08C2947F1424
:030B5500020B0888
:0F0BAB00D2947F171209257F3C120B08C29422A7
:100ABF00D2947F181209257F3C120B087F0D120963
:090ACF00257F50120B08C294228D
:0F0BBA00D2947F131209257F50120B08C2942288
:0F0BC900D2947F141209257F78120B08C2942250
:0F0BD800D2947F131209257F96120B08C2942224
:0F0BE700D2947F091209257F78120B08C294223D
:0B000E001209217F78120B08C2942217
:0F0BF600D2947F041209257F96120B08C2942215
:0F0C0500D2947F031209257F8C120B08C2942210
:0F0C1400D2947F021209257F78120B08C2942216
:0F0C2300D2947F071209257F50120B08C294222A
:0F0C3200D2947F0B1209257F32120B08C2942235
:0F0C4100D2947F0F1209257F32120B08C2942222
:0F0C5000D2947F0C1209257F50120B08C29422F8
:0F0C5F00D2947F0D1209257F50120B08C29422E8
:0300000002054DA9
:0C054D00787FE4F6D8FD758174020594F7
:10003E00BB010689828A83E0225002E722BBFE02C0
:09004E00E32289828A83E49322F3
:10005700E88FF0A4CC8BF0A42CFCE98EF0A42CFC48
:100067008AF0EDA42CFCEA8EF0A4CDA8F08BF0A4C6
:100077002DCC3825F0FDE98FF0A42CCD35F0FCEB25
:100087008EF0A4FEA9F0EB8FF0A4CFC5F02ECD39EA
:0F009700FEE43CFCEAA42DCE35F0FDE43CFC2257
:1000A60075F008758200EF2FFFEE33FECD33CDCC11
:1000B60033CCC58233C5829BED9AEC99E582984094
:1000C6000CF582EE9BFEED9AFDEC99FC0FD5F0D671
:1000D600E4CEFBE4CDFAE4CCF9A88222B800C1B99B
:1000E6000059BA002DEC8BF084CFCECDFCE5F0CBD9
:1000F600F97818EF2FFFEE33FEED33FDEC33FCEB12
:1001060033FB10D703994004EB99FB0FD8E5E4F9CC
:10011600FA227818EF2FFFEE33FEED33FDEC33FCB9
:10012600C933C910D7059BE99A4007EC9BFCE99AAD
:10013600F90FD8E0E4C9FAE4CCFB2275F010EF2FF2
:10014600FFEE33FEED33FDCC33CCC833C810D707F2
:100156009BEC9AE899400AED9BFDEC9AFCE899F82D
:0E0166000FD5F0DAE4CDFBE4CCFAE4C8F922C0
:10017400EC8EF0A4CCC5F0CCCDF8EFA4CEC5F02D18
:10018400FDE43CFCE8A42EC8C5F03DFDE43CFCEFD6
:0D019400A4FFE5F028FEE43DFDE43CFC2264
:10055900020800E493A3F8E493A34003F68001F2B0
:1005690008DFF48029E493A3F85407240CC8C333A3
:10057900C4540F4420C8834004F456800146F6DF72
:10058900E4800B01020408102040809003DDE47E22
:10059900019360BCA3FF543F30E509541FFEE49367
:1005A900A360010ECF54C025E060A840B8E493A32E
:1005B900FAE493A3F8E493A3C8C582C8CAC583CA59
:1005C900F0A3C8C582C8CAC583CADFE9DEE780BE11
:01049B000060
:00000001FF
