:1005CE00C104C110C10AC10C014800014900C10992
:1005DE00C111013200023A0000014400013800024C
:1005EE004A0000C10101230002360000013C000157
:1005FE00460001520001290002420000072A0000B5
:10060E000000000000C10601310001280001390080
:10061E00C180015000015100013E00013D00024E1B
:10062E000000C103013F0002340000013300C10F7E
:10063E00012400C10202260000C10B02400000C1CD
:10064E00080125FFC10D014500C105014700C10785
:06065E00C10E024C000079
:100CD7007D647C007F01120773C205C210120EAF3C
:100CE700C294D284D283D290D287D2A7C2937546B8
:100CF70006D2A2D2A3D2A6D281D285308003208782
:0A0D0700FAD20BE4F540F54180F14B
:03000B0002001ED2
:10001E00C0E0C0F0C083C082C0D075D000C000C0A8
:10002E0001C002C003C004C005C006C00785578CBE
:10003E0085598A0543E54370020542C394D0E542D3
:10004E00940750030201247542007543007F061287
:10005E0006FF8E348F3530090CE529C39405500503
:10006E00120961052930110CE552C3940550051291
:10007E0009020552300F12E524C39404500B20A53B
:10008E000812084412100A0524300D150545E545E1
:10009E00C3940F400C754500C20DE53F700312105E
:1000AE004B30121420A5110547E547C394054008AF
:1000BE00754700C21212104B300A2CE548C3940447
:1000CE005025D20420A50E2008051208A380031285
:1000DE0009C0120FE80548E548C394044009754865
:1000EE0000C20AC204C207300C2CE549C394045066
:1000FE0025D20420A50E2008051208A3800312099C
:10010E00C0120F3E0549E549C394044009754900E4
:10011E00C20CC204C20730A51BE53F7017300D1488
:10012E007F05FE120E9430A50B120F55753F01750B
:10013E004500C20D20A522E53FB4011D200B1A205B
:10014E000E177F057E00120E9420A50DAF35AE342E
:10015E0012051A753F00120FA4308003208708D2B3
:10016E000B754000754100300B190541E5417002D9
:10017E000540D394D0E54094074008C20B7540006B
:10018E00754100208208D20E754C00754D00300E60
:10019E0019054DE54D7002054CC394D0E54C9407FE
:1001AE004008C20E754C00754D002084030202D328
:1001BE002083030202D32005030202D3E523146039
:1001CE003114606D2402600302028E30800320879A
:1001DE001B200418053CE53CC39402500302028E1A
:1001EE00753C00752301120F1002028E753C000241
:1001FE00028E3080032087140532E532C39402400C
:10020E000E753200752302120F278003753200051A
:10021E0037E53770020536C394A0E536940F40607B
:10022E00752300753200753C0075360075370080F9
:10023E004F3080032087140538E538C39401400EF3
:10024E00753800D20AD20CD2078003753800053BF0
:10025E00E53B7002053AC394A0E53A940F40217530
:10026E002300753C00753200753600753700753AFF
:10027E0000753B00754A03754B20753800754400B8
:10028E0020811AE533C3943350130533E53394328A
:10029E004018D20AD20C753333D208800D30810A41
:1002AE00200707753300C20AC20CC3E5349401500F
:1002BE0004D20F8010D3E5359400E5349402400546
:1002CE00C20F752400301048208417053DE53DC34C
:1002DE0094034018D211C209753D0B20030ED201B2
:1002EE00800AC211755200753D00C20120831705A8
:1002FE003EE53EC394034018D209C211753E0B2051
:10030E00030ED201800AC209752900753E00C20192
:10031E0030013C054FE54F7002054EC394A0E54EEB
:10032E00940F402BC201754E00754F00D2037523FA
:10033E0000753C00753200753600753700753A0051
:10034E00753B00754A03754B2075380075440030B7
:10035E008703208020D3E5279488E5269413401543
:10036E007F037E00120E94308703208008D2027520
:10037E0026007527000527E52770020526C39488F9
:10038E00E52694134008752613752789C202D007F7
:10039E00D006D005D004D003D002D001D000D0D0EA
:0903AE00D082D083D0F0D0E032FF
:03001B00020A7B5B
:100A7B00C0E0C0F0C083C082C0D075D000C000C041
:100A8B0001C002C003C004C005C006C00785588D55
:100A9B00855A8B120A1F120D11300610C206E52C57
:100AAB00243F7008D20D754500120D7DD007D0067E
:100ABB00D005D004D003D002D001D000D0D0D0824A
:070ACB00D083D0F0D0E0322F
:1006FF00E4FAEF6405703343F620C2F8C2F9D2FA78
:10070F0043E180C2FCD2FBADF8EDC413135403FDDB
:10071F00AFE2AB07EB7E007802C333CE33CED8F90E
:10072F007C002DFBEC3EAF03FE22EF6406703443DA
:10073F00F640D2F8C2F9D2FA43E180C2FCD2FBAD47
:10074F00F8EDC413135403FDAFE27A00AB07EB7E51
:10075F00007802C333CE33CED8F97C002DFBEC3EAC
:03076F00FEAF03D7
:010772002264
:10051A008E088F09C3E50994F3E5089403400CD2C9
:10052A00947F1C120D487F3C0205B7C3E50994F27B
:10053A00E50894035016C3E50994DAE508940340E4
:10054A000BD2947F0A120D487F648061C3E5099437
:10055A00D9E50894035016C3E50994CBE50894033A
:10056A00400BD2947F09120D487F648040C3E5098D
:10057A0094CAE50894035016C3E50994B0E50894B3
:10058A0003400BD2947F08120D487F64801FC3E595
:10059A000994AFE5089403501CC3E5099497E5084C
:1005AA0094034011D2947F07120D487F647E001293
:1005BA000E94C29422C3E5099495E5089403500366
:0405CA00120FD72213
:090664000717000000000000006F
:100C1100750CAAE4F50BE4F50AE50CC2907F507E51
:100C210000120EC8D290E50C25E0F50C7F967E00EF
:100C3100120EC8050AE50AC3940840DD750CAA7FA7
:100C4100507E00120EC8050BE50BC3940340C7D2BA
:010C51009012
:010C5200227F
:100C5300750CAAE4F50BE4F50AE50CC2907F507E0F
:100C630000120EC8D290E50C25E0F50C7F967E00AD
:100C7300120EC8050AE50AC3940840DD750CAA7F65
:100C8300507E00120EC8050BE50BC3940340C7D278
:010C930090D0
:010C9400223D
:100C9500750CAAE4F50BE4F50AE50CC2907F507ECD
:100CA50000120EC8D290E50C25E0F50C7F967E006B
:100CB500120EC8050AE50AC3940840DD750CAA7F23
:100CC500507E00120EC8050BE50BC3940340C7D236
:010CD500908E
:010CD60022FB
:1007E500D293D2A6C2A77517C87518E07519C1129C
:1007F5000C53E4F51EE4F51F7417251EF8E630E7E3
:1008050006C2907F788004C2907F507E00120EE071
:10081500D2907417251EF8C000E625E0D000F67FBB
:10082500327E00120EE0051FE51FC3940840C9057E
:0E0835001EE51EC3940340BDD2A7C293D2A6F7
:010843002292
:10084400D293C2A6C2A77517C87518E07519C2124B
:100854000C53E4F508E4F50974172508F8E630E7C5
:1008640006C2907F788004C2907F507E00120EE012
:10087400D29074172508F8C000E625E0D000F67F72
:10088400327E00120EE00509E509C3940840C9054B
:0E08940008E508C3940340BDD2A7D2A6C293C4
:0108A2002233
:1008A300D293C2A6C2A77517C87518E07519C312EB
:1008B3000C11E4F508E4F50974172508F8E630E7A8
:1008C30006C2907F788004C2907F507E00120EE0B3
:1008D300D29074172508F8C000E625E0D000F67F13
:1008E300327E00120EE00509E509C3940840C905EC
:0E08F30008E508C3940340BDD2A7D2A6C29365
:0109010022D3
:10090200D293C2A6C2A77517C87518E07519C4128A
:100912000C95E4F508E4F50974172508F8E630E7C4
:1009220006C2907F788004C2907F507E00120EE053
:10093200D29074172508F8C000E625E0D000F67FB3
:10094200327E00120EE00509E509C3940840C9058C
:0E09520008E508C3940340BDD2A7D2A6C29305
:010960002274
:10096100D293C2A6C2A77517C87518E07519C5122A
:100971000C95E4F508E4F50974172508F8E630E765
:1009810006C2907F788004C2907F507E00120EE0F4
:10099100D29074172508F8C000E625E0D000F67F54
:1009A100327E00120EE00509E509C3940840C9052D
:0E09B10008E508C3940340BDD2A7D2A6C293A6
:0109BF002215
:1009C000D293C2A6C2A77517C87518E07519C612CA
:1009D0000C95E4F508E4F50974172508F8E630E706
:1009E00006C2907F788004C2907F507E00120EE095
:1009F000D29074172508F8C000E625E0D000F67FF5
:100A0000327E00120EE00509E509C3940840C905CD
:0E0A100008E508C3940340BDD2A7D2A6C29346
:010A1E0022B5
:100A1F0020910D0551E551B47803E4F551C2002240
:100A2F00200038D200E551D394234012E551D394DE
:100A3F0050500BE52825E0F5285328FE8010E5518E
:100A4F00D394504010E52825E0F5284328010539B7
:100A5F00E4F55080020550E4F551220550E550C3EE
:0C0A6F00943C4007E4F539D200F5312238
:100D1100E53964087030F539742A2531F8A628E5DB
:100D2100317009E52AB4C80475310122E531B401F5
:100D310009E52BB4E00475310222E531B40204D295
:070D4100068000E4F53122F9
:100B27007517C87518E07519C1E4F508E4F5097477
:100B3700172508F8E630E706C2A27F788004C2A22C
:100B47007F507E00120EE0D2A274172508F8C0006D
:100B5700E625E0D000F67F327E00120EE00509E5BB
:0F0B670009C3940840C90508E508C3940340BDBD
:010B7600225C
:100B77007517C87518E07519C1E4F55EE4F55F747B
:100B870017255EF8E630E706C2A37F788004C2A384
:100B97007F507E00120EE0D2A37417255EF8C000C6
:100BA700E625E0D000F67F327E00120EE0055FE515
:0F0BB7005FC3940840C9055EE55EC3940340BD6B
:010BC600220C
:100E9400EF1FAA0670011E4A60107C137D88ED1DA9
:0A0EA400AA0470011C4A60E880F403
:010EAE002221
:100EC800E4FDFCC3ED9FEC9E500DE4FB0BBB15FC51
:070ED8000DBD00010C80ECD0
:010EDF0022F0
:100EE000E4FDFCC3ED9FEC9E500DE4FB0BBB2AFC24
:070EF0000DBD00010C80ECB8
:010EF70022D8
:100E5700E4FDFCC3ED9FEC9E5015E4FBFA0BBB00D1
:0F0E6700010AEB64644A70F50DBD00010C80E4D4
:010E76002259
:100EF800E4FDFCC3ED9FEC9E500DE4FB0BBB04FC32
:070F08000DBD00010C80EC9F
:010F0F0022BF
:100DB100E4FDE4FEFF0FBF00010EBE0FF8BFA0F57A
:100DC1000DBD32EEE4FD209212E4FEFF0FBF0001E3
:0B0DD1000EBE27F8BF10F50DBD32EB81
:010DDC0022F4
:100DDD00E4FDE4FEFF0FBF00010EBE17F8BF70F576
:100DED000DBD32EEE4FD209212E4FEFF0FBF0001B7
:0B0DFD000EBE2EF8BFE0F50DBD32EB7E
:010E080022C7
:100F6B00E4FFE4FDFC0DBD00010CBC3EF8BD80F5BB
:040F7B000FBF32EE84
:010F7F00224F
:02066D00C112B8
:100FA40012103D120E77D212E4F5477F14FE020EA2
:010FB40094A8
:100F5500120FB5120FF9AF35AE3412051A120AD2B7
:060F6500E4F546020D7DDB
:100FB500120B27C2A2D2A3120DB1D2A2D2A3C2850F
:010FC5002209
:100FC600120B77D2A2C2A3120F6BD2A2D2A3C285F2
:010FD60022F8
:0E103D00D285D2A2C2A3120DDDD2A2D2A3226E
:100D7D00C210C205C209C211E4F523F53CF532F5E6
:100D8D0036F537F53AF53BF54AF54BF538F544C2EE
:100D9D0004C20AF548C20CF549C201F533C208C2B6
:040DAD000FF52422F8
:0E104B00D210D205E4F523F53CC212F547227F
:100F800075DCC075600075611DE560F5D1E561F542
:020F9000D92264
:100BC700EF1460191460251460312403703B7560BD
:100BD7000075610DE560F5D2E561F5DA2275600112
:100BE700756100E560F5D3E561F5DB227560007599
:100BF7006180E560F5D5E561F5DD22756000756119
:0A0C070040E560F5D6E561F5DE2258
:08000300E4FF120BC7020F809D
:100F920053A2BF75985A758920758BFD758DFDD248
:020FA2008E229D
:08000E008F993099FDC299227F
:100E33008B5B8A5C895DAF051DEF6017AB5B055D5E
:100E4300E55DAA5C7002055C14F91203B7FF12009A
:040E53000E80E32208
:03066F0001620124
:020D48008F0A10
:100D4A00C2A07F647E00120E57D2A07F967E001248
:100D5A000E57E4F50BE50BC3950A5016D2A17F1482
:100D6A007E00120EF8C2A17F147E00120EF8050B47
:020D7A0080E314
:010D7C002254
:100EAF00C294C2A1C2A07F5E7E01120EF8D2A07FB3
:090EBF005E7E01120EF8D29422AD
:100AD200E56224FE602F04704BD2947F0E120D4803
:100AE2007F3C7E00120E947F12120D487F327E00F0
:100AF200120E947F0B120D487F467E00120E94C296
:100B02009475620222D2947F0E120D487F237E00DA
:100B1200120E947F0C120D487F3C7E00120E94C27E
:050B2200947562012240
:100FD700D2947F06120D487F507E00120E94C29461
:010FE70022E7
:100F1000D2947F02120D487F5A7E00120E94C29422
:070F20007F0A7E00020E941F
:100F2700D2947F1B120D487F8C7E00120E94C294C0
:070F37007F1E7E00020E94F4
:100FE800D2947F03120D487FB47E00120E94C294EF
:010FF80022D6
:100F3E00D2947F16120D487FB47E00120E94C29486
:070F4E007F147E00020E94E7
:100FF900D2947F17120D487F3C7E00120E94C29442
:0110090022C4
:100E7700D2947F18120D487F3C7E00120E947F0D8E
:0D0E8700120D487F507E00120E94C294227E
:10100A00D2947F13120D487F507E00120E94C29420
:01101A0022B3
:10101B00D2947F14120D487F787E00120E94C294E6
:01102B0022A2
:10102C00D2947F13120D487F967E00120E94C294B8
:01103C002291
:040773008C0D8D0E4E
:100777007E007C2B7D331204EDE47B0CFAF9F81232
:10078700045B8F128E118D108C0FC3E49FFFE49EC4
:10079700F5578F59AE0DAF0EEE3395E0FDFCE47BB8
:1007A7000BFAF9F81203D0E47B0CFAF9F812045BA0
:1007B7008F168E158D148C13C3E49FFFE49EF55896
:1007C7008F5A75891185578C85598A85588D855A11
:0D07D7008BD2A9D28CD2ABD28ED2BBD2AFC6
:0107E40022F2
:100E09007E007C2B7D331204EDE47B0CFAF9F81299
:100E1900045B8F568E558D548C53C3E49FFFE49E1B
:090E2900F5578F59758921D28C0F
:010E3200229D
:0400160043870122F9
:0300000002067382
:0C067300787FE4F6D8FD7581620206BABB
:1003B700BB010689828A83E0225002E722BBFE0244
:0903C700E32289828A83E4932277
:1003D000E88FF0A4CC8BF0A42CFCE98EF0A42CFCCC
:1003E0008AF0EDA42CFCEA8EF0A4CDA8F08BF0A44A
:1003F0002DCC3825F0FDE98FF0A42CCD35F0FCEBA9
:100400008EF0A4FEA9F0EB8FF0A4CFC5F02ECD396D
:0F041000FEE43CFCEAA42DCE35F0FDE43CFC22DA
:10041F0075F008758200EF2FFFEE33FECD33CDCC94
:10042F0033CCC58233C5829BED9AEC99E582984017
:10043F000CF582EE9BFEED9AFDEC99FC0FD5F0D6F4
:10044F00E4CEFBE4CDFAE4CCF9A88222B800C1B91E
:10045F000059BA002DEC8BF084CFCECDFCE5F0CB5C
:10046F00F97818EF2FFFEE33FEED33FDEC33FCEB95
:10047F0033FB10D703994004EB99FB0FD8E5E4F950
:10048F00FA227818EF2FFFEE33FEED33FDEC33FC3D
:10049F00C933C910D7059BE99A4007EC9BFCE99A31
:1004AF00F90FD8E0E4C9FAE4CCFB2275F010EF2F76
:1004BF00FFEE33FEED33FDCC33CCC833C810D70776
:1004CF009BEC9AE899400AED9BFDEC9AFCE899F8B1
:0E04DF000FD5F0DAE4CDFBE4CCFAE4C8F92244
:1004ED00EC8EF0A4CCC5F0CCCDF8EFA4CEC5F02D9C
:1004FD00FDE43CFCE8A42EC8C5F03DFDE43CFCEF5A
:0D050D00A4FFE5F028FEE43DFDE43CFC22E7
:10067F00020CD7E493A3F8E493A34003F68001F2AE
:10068F0008DFF48029E493A3F85407240CC8C3337C
:10069F00C4540F4420C8834004F456800146F6DF4B
:1006AF00E4800B01020408102040809005CEE47E08
:1006BF00019360BCA3FF543F30E509541FFEE49340
:1006CF00A360010ECF54C025E060A840B8E493A307
:1006DF00FAE493A3F8E493A3C8C582C8CAC583CA32
:1006EF00F0A3C8C582C8CAC583CADFE9DEE780BEEA
:010672000087
:00000001FF
