:10054E00C105C115C10EC110014900014A00C10A01
:10055E00C116013200023A000001460001380002C5
:10056E004B0000C10101230002360000013D0001D5
:10057E00530001290002440000072A000000000079
:10058E000000C107013100012800013900C18001BE
:10059E005100015200014000013E00024F0000C117
:1005AE0004014101013C0002340000013300C1147A
:1005BE00012400C10302260000C10F02420000C147
:1005CE00090125FFC111014700C106014800C108FC
:1005DE00C113024D0000013F00C10DC192C10CC1FB
:0305EE008BC1823C
:100A96007D647C007F011207B2C206C215120C4F9C
:100AA600C294D284D283D290D287D2A7D293D2A232
:100AB600D2A3D2A6D281D28CD2853080032087FAE7
:090AC600D20FE4F542F54380F182
:03000B0002001ED2
:10001E00C0E0C0F0C083C082C0D075D000C000C0A8
:10002E0001C002C003C004C005C006C007855B8CBA
:10003E00855D8A0545E54570020544C394D0E544C7
:10004E00940750030200FE7544007545007F0612AA
:10005E00073E8E348F35053FE53FC394015016E5BC
:10006E004164016005E53CB4010E7D1C7C007FC13E
:10007E00120C0E8003753F1F0547E547D3940440CD
:10008E0010754708D20B201708300C05D21775488B
:10009E0000301714300C110548E548C3940540088C
:1000AE00754800C217120E0C300E21E549C3940498
:1000BE00501AD20520A503120D2C0549E549C3940B
:1000CE00044009754900C20EC205C208301021E570
:1000DE004AC39404501AD20520A503120CD6054A21
:1000EE00E54AC394044009754A00C210C205C2080D
:1000FE0030A522E541701E30021B7F05120C99308F
:10010E00A513754101753C00754700C211C20B75F0
:10011E003F1F120A5BE54164017025301122201247
:10012E001F30021C7B1C7DA07C0F7FD07E07120B24
:10013E00C3754700C211120D0DD212C20C753F1FAE
:10014E0020A51DE53C70193002167F05120C992072
:10015E00A50E754100753C01753F1FD217754800FD
:10016E00300B2C200C29300226200F23201320AF19
:10017E0035AE341206007D107C277F707E17120D6F
:10018E00FE12000E753F1FC20BC212D20CC21130EE
:10019E008003208708D20F754200754300300F1977
:1001AE000543E54370020542D394A0E542940F4007
:1001BE0008C20F754200754300308208D213754D88
:1001CE0000754E00301319054EE54E7002054DC3F5
:1001DE0094A0E54D940F4008C213754D00754E0066
:1001EE00208403020309208303020309200603026D
:1001FE000309E52314603114606D240260030202CA
:10020E00C430800320871B200518053DE53DC394AF
:10021E000250030202C4753D00752301120CB00298
:10022E0002C4753D000202C43080032087140532DB
:10023E00E532C39402400E753200752302120CC3D0
:10024E0080037532000537E53770020536C394A07A
:10025E00E536940F4060752300753200753D0075CC
:10026E003600753700804F3080032087140538E53F
:10027E0038C39401400E753800D20ED210D20880C9
:10028E0003753800053BE53B7002053AC394A0E5C3
:10029E003A940F4021752300753D00753200753676
:1002AE0000753700753A00753B00754B03754C2091
:1002BE0075380075460020811AE533C39433501308
:1002CE000533E53394324018D20ED210753333D243
:1002DE0009800D30810A200807753300C20EC21046
:1002EE00C3E53494015004D2148010D3E535940044
:1002FE00E53494024005C21475240030154820845C
:10030E0017053EE53EC394034018D216C20A753E49
:10031E000B20040ED201800AC216755300753E00E2
:10032E00C2012083170540E540C394034018D20A4A
:10033E00C21675400B20040ED201800AC20A75291E
:10034E0000754000C20130013C0550E550700205B9
:10035E004FC394A0E54F940F402BC201754F00750B
:10036E005000D204752300753D00753200753600BD
:10037E00753700753A00753B00754B03754C20754B
:10038E00380075460030870320801ED3E5279488F9
:10039E00E526941340137F03120C993087032080B7
:1003AE0008D2037526007527000527E5277002057C
:1003BE0026C39488E526941340087526137527895D
:1003CE00C203D007D006D005D004D003D002D0018E
:0D03DE00D000D0D0D082D083D0F0D0E0325B
:03001B000208DBFD
:1008DB00C0E0C0F0C083C082C0D075D000C000C0E3
:1008EB0001C002C003C004C005C006C007855C8DF3
:1008FB00855E8B120824120B08300710C207E52CFB
:10090B00243F7008D211754700120A5BD007D0063E
:10091B00D005D004D003D002D001D000D0D0D082EB
:07092B00D083D0F0D0E032D0
:10073E00E4FAEF6405703343F620C2F8C2F9D2FA38
:10074E0043E180C2FCD2FBADF8EDC413135403FD9C
:10075E00AFE2AB07EB7E007802C333CE33CED8F9CF
:10076E007C002DFBEC3EAF03FE22EF64067034439B
:10077E00F640D2F8C2F9D2FA43E180C2FCD2FBAD08
:10078E00F8EDC413135403FDAFE27A00AB07EB7E12
:10079E00007802C333CE33CED8F97C002DFBEC3E6D
:0307AE00FEAF0398
:0107B1002225
:100600008E088F09C3E50994A4E5089402400CD232
:10061000947F1C120AD37F3C02069DC3E50994A275
:10062000E50894025016C3E5099491E50894024048
:100630000BD2947F0A120AD37F648061C3E50994C8
:100640008FE50894025016C3E509947CE5089402EE
:10065000400BD2947F09120AD37F648040C3E5091E
:10066000947AE50894025016C3E5099463E508946A
:1006700002400BD2947F08120AD37F64801FC3E527
:10068000099461E5089402501AC3E5099450E508FD
:100690009402400FD2947F07120AD37F64120C9900
:1006A000C29422C3E509944EE50894025003120D4A
:0206B0001D2209
:0905F100075400000000000000A6
:1009D000750CAAE4F50BE4F50AE50CC2907D157CD4
:1009E000007F17120B9BD290E50C25E0F50C7D15CE
:1009F0007C007F2B120B9B050AE50AC3940840D9A3
:100A0000750CAA7D157C007F17120B9B050BE50B5F
:070A1000C3940340C1D29022
:010A170022BC
:020932008F0A2A
:10093400E4F50BE4F50C7454250BF8E630E70BC230
:1009440090E50AFD7C007F248009C290E50AFD7CC5
:10095400007F17120B9BD2907454250BF8C000E64D
:1009640025E0D000F6E50AFD7C007F0F120B9B0505
:100974000CE50CC3940840BE050BE50BC39403407F
:01098400B2C0
:01098500224F
:100C0E008C088D09D293D2A6C2A77554C87555E02B
:100C1E008F561209D0AF09120932D2A7C293D2A6AB
:010C2E0022A3
:1008240020910D0552E552B47803E4F552C200223A
:10083400200038D200E552D394234012E552D394D9
:1008440050500BE52825E0F5285328FE8010E5528A
:10085400D394504010E52825E0F5284328010539B4
:10086400E4F55180020551E4F552220551E551C3E6
:0C087400943C4007E4F539D200F5312235
:100B0800E53964087030F539742A2531F8A628E5E6
:100B1800317009E52AB4C80475310122E531B40100
:100B280009E52BB4E00475310222E531B40204D2A0
:070B3800078000E4F5312203
:040880008C0C8D0D42
:100884007554C87555E08F56E4F50EE4F50F7454AD
:10089400250EF8E630E70AC2A2AD0DAC0C7F248029
:1008A40008C2A2AD0DAC0C7F17120B9BD2A27454DC
:1008B400250EF8C000E625E0D000F6AD0DAC0C7FA7
:1008C4000F120B9B050FE50FC3940840C1050EE5FD
:0608D4000EC3940340B5C1
:0108DA0022FB
:100C9900AE071FEE60107C137D88ED1DAA0470015C
:060CA9001C4A60EC80F41F
:010CAF002222
:100B9B00E4FBFAEFF582C3EB9582EA94005018E47C
:100BAB00FEEEC39DEC6480F874809850030E80F1C8
:070BBB000BBB00010A80DC06
:010BC2002210
:100C2F00E4FDFCC3ED9FEC9E5015E4FBFA0BBB00FB
:0F0C3F00010AEB64644A70F50DBD00010C80E4FE
:010C4E002283
:100C8100E4FDFCC3ED9FEC9E500DE4FB0BBB04FCAB
:070C91000DBD00010C80EC19
:010C98002239
:100B3F00E4F9E4FAFBC3EB9FEA9E50070BBB0001FD
:100B4F000A80F209B932EBE4F9209215E4FAFBC3FB
:100B5F00EB9DEA9C50070BBB00010A80F209B932EA
:010B6F00E89D
:010B70002262
:0205FA00C11727
:0D000E00120C68D217E4F5487F14020C991B
:100D0D00120D3BAF35AE34120600120A18020A5B03
:100BC3008E088F098C0A8D0BEBFD7C007FC1120808
:100BD30080C2A2D2A3AD0BAC0AAF09AE08120B3F81
:070BE300D2A2D2A3C28522B9
:0E0DFE00D285D2A2C2A3120B3FD2A2D2A32250
:100A5B00C215C206C20AC216E4F523F53DF532F5FE
:100A6B0036F537F53AF53BF54BF54CF538F546C20F
:100A7B0005C20EF549C210F54AC201F533C209C2CF
:0B0A8B0017F548300204C214F52422C5
:0E0E0C00D215D206E4F523F53DC217F54822B3
:0A0E2500C2A47F0A120C99D2A42285
:100CE90075DCC0751E00751F1DE51EF5D1E51FF5E4
:020CF900D922FE
:10098600EF1460191460251460312403703B751E42
:1009960000751F0DE51EF5D2E51FF5DA22751E015D
:1009A600751F00E51EF5D3E51FF5DB22751E0075E4
:1009B6001F80E51EF5D5E51FF5DD22751E00751FA6
:0A09C60040E51EF5D6E51FF5DE2220
:08000300E4FF120986020CE97A
:100CFB0053A2BF75985A758920758BFD758DFDD2E2
:020D0B008E2236
:080E2F008F993099FDC2992250
:100BEA008B5F8A608961AF051DEF6017AB5F056196
:100BFA00E561AA607002056014F91203EBFF120E98
:040C0A002F80E32232
:0305FC0001620198
:040ACF00D2947F112D
:020AD3008F0A88
:100AD500C2A07F647E00120C2FD2A07F967E0012EA
:100AE5000C2FE4F50BE50BC3950A5016D2A17F1424
:100AF5007E00120C81C2A17F147E00120C81050BB1
:020B050080E38B
:010B070022CB
:100C4F00C294C2A1C2A07F5E7E01120C81D2A07F8E
:090C5F005E7E01120C81D2942288
:100A1800E56224FE6025047039120ACF7F28120C83
:100A2800997F12120AD37F32120C997F0B120AD3C4
:100A38007F46120C99C29475620222120ACF7F2354
:100A4800120C997F0C120AD37F3C120C99C2947530
:030A580062012216
:0F0D1D00D2947F06120AD37F50120C99C29422EF
:100CB000D2947F02120AD37F5A120C99C2947F1EDB
:030CC000020C998A
:100CC300D2947F1B120AD37F8C120C99C2947F2873
:030CD300020C9977
:0F0D2C00D2947F03120AD37FB4120C99C294227F
:100CD600D2947F16120AD37FB4120C99C2947F1451
:030CE600020C9964
:0F0D3B00D2947F17120AD37F3C120C99C29422D4
:100C6800D2947F18120AD37F3C120C997F0D120A76
:090C7800D37F50120C99C29422A2
:0F0D4A00D2947F13120AD37F50120C99C29422B5
:0F0D5900D2947F14120AD37F78120C99C294227D
:0F0D6800D2947F13120AD37F96120C99C2942251
:0F0D7700D2947F09120AD37F78120C99C294226A
:0B0E1A00120ACF7F78120C99C29422BC
:0F0D8600D2947F04120AD37F96120C99C2942242
:0F0D9500D2947F03120AD37F8C120C99C294223E
:0F0DA400D2947F02120AD37F78120C99C2942244
:0F0DB300D2947F07120AD37F50120C99C2942258
:0F0DC200D2947F0B120AD37F32120C99C2942263
:0F0DD100D2947F0F120AD37F32120C99C2942250
:0F0DE000D2947F0C120AD37F50120C99C2942226
:0F0DEF00D2947F0D120AD37F50120C99C2942216
:0407B2008C108D1109
:1007B6007E007C2B7D33120521E47B0CFAF9F812BE
:1007C600048F8F158E148D138C12C3E49FFFE49E45
:1007D600F55B8F5DAE10AF11EE3395E0FDFCE47B6B
:1007E6000BFAF9F8120404E47B0CFAF9F812048FF8
:1007F6008F198E188D178C16C3E49FFFE49EF55C47
:100806008F5E758911855B8C855D8A855C8D855EBD
:0D0816008BD2A9C28CD2ABD28ED2BBD2AF96
:0108230022B2
:100B71007E007C2B7D33120521E47B0CFAF9F812FF
:100B8100048F8F1D8E1C8D1B8C1AC3E49FFFE49E66
:090B9100F55B8F5D758921D28CA2
:010B9A002238
:040E370043870122CA
:030000000206B243
:0C06B200787FE4F6D8FD7581620206F93D
:1003EB00BB010689828A83E0225002E722BBFE0210
:0903FB00E32289828A83E4932243
:10040400E88FF0A4CC8BF0A42CFCE98EF0A42CFC97
:100414008AF0EDA42CFCEA8EF0A4CDA8F08BF0A415
:100424002DCC3825F0FDE98FF0A42CCD35F0FCEB74
:100434008EF0A4FEA9F0EB8FF0A4CFC5F02ECD3939
:0F044400FEE43CFCEAA42DCE35F0FDE43CFC22A6
:1004530075F008758200EF2FFFEE33FECD33CDCC60
:1004630033CCC58233C5829BED9AEC99E5829840E3
:100473000CF582EE9BFEED9AFDEC99FC0FD5F0D6C0
:10048300E4CEFBE4CDFAE4CCF9A88222B800C1B9EA
:100493000059BA002DEC8BF084CFCECDFCE5F0CB28
:1004A300F97818EF2FFFEE33FEED33FDEC33FCEB61
:1004B30033FB10D703994004EB99FB0FD8E5E4F91C
:1004C300FA227818EF2FFFEE33FEED33FDEC33FC09
:1004D300C933C910D7059BE99A4007EC9BFCE99AFD
:1004E300F90FD8E0E4C9FAE4CCFB2275F010EF2F42
:1004F300FFEE33FEED33FDCC33CCC833C810D70742
:100503009BEC9AE899400AED9BFDEC9AFCE899F87C
:0E0513000FD5F0DAE4CDFBE4CCFAE4C8F9220F
:10052100EC8EF0A4CCC5F0CCCDF8EFA4CEC5F02D67
:10053100FDE43CFCE8A42EC8C5F03DFDE43CFCEF25
:0D054100A4FFE5F028FEE43DFDE43CFC22B3
:1006BE00020A96E493A3F8E493A34003F68001F2B2
:1006CE0008DFF48029E493A3F85407240CC8C3333D
:1006DE00C4540F4420C8834004F456800146F6DF0C
:1006EE00E4800B010204081020408090054EE47E49
:1006FE00019360BCA3FF543F30E509541FFEE49301
:10070E00A360010ECF54C025E060A840B8E493A3C7
:10071E00FAE493A3F8E493A3C8C582C8CAC583CAF2
:10072E00F0A3C8C582C8CAC583CADFE9DEE780BEAA
:0105FF0000FB
:00000001FF
