:10068D00C104C110C10AC10C014800014900C109D2
:10069D00C111013200023A0000014400013800028C
:1006AD004A0000C10101230002360000013C000197
:1006BD00460001520001290002420000072A0000F5
:1006CD000000000000C106013100012800013900C1
:1006DD00C180015000015100013E00013D00024E5C
:1006ED000000C103013F0102340000013300C10FBE
:1006FD00012400C10202260000C10B02400000C10E
:10070D00080125FFC10D014500C105014700C107C5
:06071D00C10E024C0000B9
:10047B00120C40120CC67F01120B5EC299C298D2AD
:10048B00ACD2A9D2BCD2AFC205C210D284D283D215
:10049B0090D287D2A7C293754606D2A2D2A3D2A678
:1004AB00C294D285D28C3080032087127F02120C2B
:1004BB008A308003208707D20BE4F540F541300AE0
:1004CB0021E548C39404501AD20420A503120D064B
:1004DB000548E548C394044009E4F548C20AC20440
:1004EB00C207300C21E549C39404501AD20420A54D
:1004FB0003120CA10549E549C394044009E4F549ED
:10050B00C20CC204C207C3E5359496E5349400507F
:10051B000720A504D20F808ED3E5359400E53494E3
:0B052B00014083C20FE4F5240204B17C
:03000B00020026CA
:10002600C0E0C0F0C083C082C0D075D000C000C0A0
:1000360001C002C003C004C005C006C007855A8CB3
:10004600855C8A0543E54370020542C394D0E542C8
:100056009407403E7542007543007F061207BE8E28
:10006600348F35300D150545E545C3940F400C75A5
:100076004500C20DE53F7003120DE630121420A5AF
:10008600110547E547C3940F4008754700C2121291
:100096000DE630A527E53F7023300D207F05120CB5
:1000A6008A30A5187B2A7DEC7C137FD07E07120B45
:1000B600B0120CD8753F01754500C20D20A52CE580
:1000C6003F64017026200B23200E207F05120C8A28
:1000D60020A518AF35AE34120536753F007DBC7CC1
:1000E6001B7FD07E07120DD8120DF43080032087B7
:1000F60008D20B754000754100300B190541E541EA
:1001060070020540C394D0E54094074008C20B75C1
:100116004000754100308208D20E754C00754D00C6
:10012600300E19054DE54D7002054CC394D0E54CD3
:1001360094074008C20E754C00754D0020840302DA
:100146000240208303020240200503020240E52309
:1001560014603114606D24026003020218308003BB
:1001660020871B200418053CE53CC394025003027B
:100176000218753C0075230112000E020218753C28
:10018600000202183080032087140532E532C3943A
:1001960002400E753200752302120CF78003753289
:1001A600000537E53770020536C394A0E536940F8F
:1001B6004060752300753200753C00753600753752
:1001C60000804F3080032087140538E538C394013A
:1001D600400E753800D20AD20CD20780037538005B
:1001E600053BE53B7002053AC394A0E53A940F40FF
:1001F60021752300753C0075320075360075370091
:10020600753A00753B00754A03754B2075380075C5
:100216004400208118E533C3943350110533E53388
:1002260094324016D20AD20C753333800D30810ACF
:10023600200707753300C20AC20C30103E20841214
:10024600053DE53DB40A15D211C20920030ED201BF
:10025600800AC211755200753D00C2012083120545
:100266003EE53EB40A15D209C21120030ED2018022
:100276000AC209752900753E00C20130013C054FCE
:10028600E54F7002054EC394A0E54E940F402BC275
:1002960001754E00754F00D203752300753C00753D
:1002A6003200753600753700753A00753B00754AA1
:1002B60003754B2075380075440030870320801E77
:1002C600D3E5279488E526941340137F03120C8AFE
:1002D600308703208008D20275260075270005277F
:1002E600E52770020526C39488E526941340087511
:1002F6002613752789C202D007D006D005D004D0B0
:1003060003D002D001D000D0D0D082D083D0F0D09C
:02031600E032D3
:030023000205E8EB
:1005E800C0E0C0F0C083C082C0D075D000C000C0D9
:1005F80001C002C003C004C005C006C00730986A25
:10060800C298742A2531F8A699E5317009E52A704F
:10061800057531018054E531B40109E52B70057584
:1006280031028046E531B40209E52C7005753103C5
:100638008038E531B4030AE52DB41305753104801B
:1006480029E531B4040AE52EB4EC05753105801AA4
:10065800E531B40512E52FB5250D753100D20D75BC
:100668004500120ABD8003753100D007D006D005B9
:10067800D004D003D002D001D000D0D0D082D08313
:05068800D0F0D0E032CB
:1007BE00E4FAEF6405703343F620C2F8C2F9D2FAB8
:1007CE0043E180C2FCD2FBADF8EDC413135403FD1C
:1007DE00AFE2AB07EB7E007802C333CE33CED8F94F
:1007EE007C002DFBEC3EAF03FE22EF64067034431B
:1007FE00F640D2F8C2F9D2FA43E180C2FCD2FBAD88
:10080E00F8EDC413135403FDAFE27A00AB07EB7E91
:10081E00007802C333CE33CED8F97C002DFBEC3EEC
:03082E00FEAF0317
:0108310022A4
:100536008E088F09C3E5099401E5089403400CD29F
:10054600947F1C120A887F3C0205D3C3E5099401F7
:10055600E50894035016C3E50994F4E508940240AF
:100566000BD2947F0A120A887F648061C3E50994DE
:10057600F4E50894025016C3E50994E5E5089402EB
:10058600400BD2947F09120A887F648040C3E50934
:1005960094E5E50894025016C3E50994D5E5089458
:1005A60002400BD2947F08120A887F64801FC3E53D
:1005B6000994D5E5089402501AC3E50994C8E508DC
:1005C6009402400FD2947F07120A887F64120C8A25
:1005D600C29422C3E50994C8E50894025003120C9C
:0205E600E82209
:0907230007530000000000000073
:1009F9007560AAE4F55FE4F55EE560C2907D157C5B
:100A0900007F17120B88D290E56025E0F5607D150F
:100A19007C007F2B120B88055EE55EC3940840D9E4
:100A29007560AA7D157C007F17120B88055FE55F4D
:070A3900C3940340C1D290F9
:010A40002293
:02095B008F61AA
:10095D00E4F562E4F56374532562F8E630E70BC203
:10096D0090E561FD7C007F248009C290E561FD7CEE
:10097D00007F17120B88D29074532562F8C000E6E1
:10098D0025E0D000F6E561FD7C007F0F120B880598
:10099D0063E563C3940840BE0562E562C3940340FA
:0109AD00B297
:0109AE002226
:100BD7008F648C658D66D2937F14120C8AC2A775B9
:100BE70053C87554E08564551209F9AF6612095B5D
:050BF700D2A7C2932209
:1008A40020910D0551E551B47803E4F551C20022BD
:1008B400200038D200E551D394234012E551D3945B
:1008C40050500BE52825E0F5285328FE8010E5510B
:1008D400D394504010E52825E0F528432801053934
:1008E400E4F55080020550E4F551220550E550C36B
:0C08F400943C4007E4F539D200F53122B5
:100AF500E53964087030F539742A2531F8A628E5FA
:100B0500317009E52AB4C80475310122E531B40113
:100B150009E52BB4E00475310222E531B40204D2B3
:070B2500068000E4F5312217
:040900008C0C8D0DC1
:100904007553C87554E08F55E4F50EE4F50F745330
:10091400250EF8E630E70AC2A2AD0DAC0C7F2480A8
:1009240008C2A2AD0DAC0C7F17120B88D2A274536F
:10093400250EF8C000E625E0D000F6AD0DAC0C7F26
:100944000F120B88050FE50FC3940840C1050EE58F
:060954000EC3940340B540
:01095A00227A
:100C8A00AE071FEE60107C137D88ED1DAA0470016B
:060C9A001C4A60EC80F42E
:010CA0002231
:100B8800E4FBFAEFF582C3EB9582EA94005018E48F
:100B9800FEEEC39DEC6480F874809850030E80F1DB
:070BA8000BBB00010A80DC19
:010BAF002223
:100C2000E4FDFCC3ED9FEC9E5015E4FBFA0BBB000A
:0F0C3000010AEB64644A70F50DBD00010C80E40D
:010C3F002292
:100C7200E4FDFCC3ED9FEC9E500DE4FB0BBB04FCBA
:070C82000DBD00010C80EC28
:010C89002248
:100B2C00E4F9E4FAFBC3EB9FEA9E50070BBB000110
:100B3C000A80F209B932EBE4F9209215E4FAFBC30E
:100B4C00EB9DEA9C50070BBB00010A80F209B932FD
:010B5C00E8B0
:010B5D002275
:02072C00C112F8
:0D0DF400120C59D212E4F5477F14020C8A4C
:100CD800120D15AF35AE34120536120A41020ABD9F
:100BB0008E088F098C0A8D0BEBFD7C007FC112091A
:100BC00000C2A2D2A3AD0BAC0AAF09AE08120B2C27
:070BD000D2A2D2A3C28522CC
:0E0DD800D285D2A2C2A3120B2CD2A2D2A32289
:100ABD00C210C205C209C211E4F523F53CF532F5A9
:100ACD0036F537F53AF53BF54AF54BF538F544C2B1
:100ADD0004C20AF548C20CF549C201F533C208C279
:080AED0012F547C20FF52422A7
:0E0DE600D210D205E4F523F53CC212F54722E7
:0A0E0C00C2A47F05120C8AD2A422B2
:100CB40075DCC0751E00751F1DE51EF5D1E51FF519
:020CC400D92233
:1009AF00EF1460191460251460312403703B751E19
:1009BF0000751F0DE51EF5D2E51FF5DA22751E0134
:1009CF00751F00E51EF5D3E51FF5DB22751E0075BB
:1009DF001F80E51EF5D5E51FF5DD22751E00751F7D
:0A09EF0040E51EF5D6E51FF5DE22F7
:08000300E4FF1209AF020CB486
:040832008C148D1580
:100836007E007C2B7D3312044EE47B0CFAF9F81211
:1008460003BC8F198E188D178C16C3E49FFFE49E88
:10085600F55A8F5CAE14AF15EE3395E0FDFCE47BE4
:100866000BFAF9F8120331E47B0CFAF9F81203BC1F
:100876008F1D8E1C8D1B8C1AC3E49FFFE49EF55BB7
:100886008F5D758911855A8C855C8A855B8D855D42
:0D0896008BD2A9C28CD2ABD28ED2BBD2AF16
:0108A3002232
:100B5E007E007C2B7D3312044EE47B0CFAF9F812E6
:100B6E0003BC8F138E128D118C10C3E49FFFE49E75
:090B7E00F55A8F5C758921C28CC7
:010B8700224B
:040E1E0043870122E3
:100CC60053A2BF75985A758920758BFD758DFDD217
:020CD6008E226C
:080E16008F993099FDC2992269
:100BFC008B678A688969AF051DEF6017AB6705695C
:100C0C00E569AA687002056814F9120318FF120E40
:040C1C001680E32239
:03072E00016A015C
:040A8400D2947F0E7B
:020A88008F10CD
:100A8A00C2A07F647E00120C20D2A07F967E001244
:100A9A000C20E4F511E511C395105016D2A17F146C
:100AAA007E00120C72C2A17F147E00120C72051114
:020ABA0080E3D7
:010ABC002217
:100C4000C294C2A1C2A07F5E7E01120C72D2A07FAC
:090C50005E7E01120C72D29422A6
:100A4100E56A24FE6025047039120A847F2D120C98
:100A51008A7F12120A887F32120C8A7F0B120A884F
:100A61007F46120C8AC294756A0222120A847F2878
:100A7100120C8A7F0C120A887F3C120C8AC2947570
:030A81006A0122E5
:0F0CE800D2947F06120A887F50120C8AC294227F
:10000E00D2947F02120A887F5A120C8AC2947F1EE3
:03001E00020C8A47
:0F0CF700D2947F1B120A887F8C120C8AC294221F
:0F0D0600D2947F03120A887FB4120C8AC29422FF
:100CA100D2947F16120A887FB4120C8AC2947F14E0
:030CB100020C8AA8
:0F0D1500D2947F17120A887F3C120C8AC2942254
:100C5900D2947F18120A887F3C120C8A7F0D120ADF
:090C6900887F46120C8AC2942215
:0F0D2400D2947F13120A887F50120C8AC2942235
:0F0D3300D2947F14120A887F78120C8AC29422FD
:0F0D4200D2947F13120A887F96120C8AC29422D1
:0F0D5100D2947F09120A887F78120C8AC29422EA
:0B0E0100120A847F78120C8AC294222F
:0F0D6000D2947F04120A887F96120C8AC29422C2
:0F0D6F00D2947F03120A887F8C120C8AC29422BE
:0F0D7E00D2947F02120A887F78120C8AC29422C4
:0F0D8D00D2947F07120A887F50120C8AC29422D8
:0F0D9C00D2947F0B120A887F32120C8AC29422E3
:0F0DAB00D2947F0F120A887F32120C8AC29422D0
:0F0DBA00D2947F0C120A887F50120C8AC29422A6
:0F0DC900D2947F0D120A887F50120C8AC2942296
:03000000020732C2
:0C073200787FE4F6D8FD75816A02077933
:10031800BB010689828A83E0225002E722BBFE02E3
:09032800E32289828A83E4932216
:10033100E88FF0A4CC8BF0A42CFCE98EF0A42CFC6B
:100341008AF0EDA42CFCEA8EF0A4CDA8F08BF0A4E9
:100351002DCC3825F0FDE98FF0A42CCD35F0FCEB48
:100361008EF0A4FEA9F0EB8FF0A4CFC5F02ECD390D
:0F037100FEE43CFCEAA42DCE35F0FDE43CFC227A
:1003800075F008758200EF2FFFEE33FECD33CDCC34
:1003900033CCC58233C5829BED9AEC99E5829840B7
:1003A0000CF582EE9BFEED9AFDEC99FC0FD5F0D694
:1003B000E4CEFBE4CDFAE4CCF9A88222B800C1B9BE
:1003C0000059BA002DEC8BF084CFCECDFCE5F0CBFC
:1003D000F97818EF2FFFEE33FEED33FDEC33FCEB35
:1003E00033FB10D703994004EB99FB0FD8E5E4F9F0
:1003F000FA227818EF2FFFEE33FEED33FDEC33FCDD
:10040000C933C910D7059BE99A4007EC9BFCE99AD0
:10041000F90FD8E0E4C9FAE4CCFB2275F010EF2F15
:10042000FFEE33FEED33FDCC33CCC833C810D70715
:100430009BEC9AE899400AED9BFDEC9AFCE899F850
:0E0440000FD5F0DAE4CDFBE4CCFAE4C8F922E3
:10044E00EC8EF0A4CCC5F0CCCDF8EFA4CEC5F02D3B
:10045E00FDE43CFCE8A42EC8C5F03DFDE43CFCEFF9
:0D046E00A4FFE5F028FEE43DFDE43CFC2287
:10073E0002047BE493A3F8E493A34003F68001F252
:10074E0008DFF48029E493A3F85407240CC8C333BC
:10075E00C4540F4420C8834004F456800146F6DF8B
:10076E00E4800B010204081020408090068DE47E88
:10077E00019360BCA3FF543F30E509541FFEE49380
:10078E00A360010ECF54C025E060A840B8E493A347
:10079E00FAE493A3F8E493A3C8C582C8CAC583CA72
:1007AE00F0A3C8C582C8CAC583CADFE9DEE780BE2A
:0107310000C7
:00000001FF
