:10069900C104C110C10AC10C014800014900C109C6
:1006A900C111013200023A00000144000138000280
:1006B9004A0000C10101230002360000013C00018B
:1006C900460001520001290002420000072A0000E9
:1006D9000000000000C106013100012800013900B5
:1006E900C180015000015100013E00013D00024E50
:1006F9000000C103013F0102340000013300C10FB2
:10070900012400C10202260000C10B02400000C101
:10071900080125FFC10D014500C105014700C107B9
:06072900C10E024C0000AD
:10048700120CE07F01120B69C299C298D2ACD2A9B3
:10049700D2BCD2AFC205C210120C47C294D284D2CA
:1004A70083D290D287D2A7C293754606D2A2D2A38F
:1004B700D2A6D20BD2853080032087127F02120C7E
:1004C70091308003208707D20BE4F540F541300ACD
:1004D70021E548C39404501AD20420A503120D1134
:1004E7000548E548C394044009E4F548C20AC20434
:1004F700C207300C21E549C39404501AD20420A541
:1005070003120CBB0549E549C394044009E4F549C6
:10051700C20CC204C207C3E5359496E53494005073
:100527000720A504D20F808ED3E5359400E53494D7
:0B053700014083C20FE4F5240204BD64
:03000B00020026CA
:10002600C0E0C0F0C083C082C0D075D000C000C0A0
:1000360001C002C003C004C005C006C007855A8CB3
:10004600855C8A0543E54370020542C394D0E542C8
:100056009407403E7542007543007F061207CA8E1C
:10006600348F35300D150545E545C3940F400C75A5
:100076004500C20DE53F7003120DF130121420A5A4
:10008600110547E547C3940F4008754700C2121291
:100096000DF1300B190541E54170020540C394D0BE
:1000A600E54094074008C20B75400075410030A535
:1000B6002AE53F7026300D237F05120C9130A51BD3
:1000C600D3920F7B2A7D887C137FD07E07120BBBD1
:1000D600120CF2753F01754500C20D20A535E53FAE
:1000E6006401702F200B2C200E297F05120C912005
:1000F600A521AF35AE34120542753F00300F067D9F
:10010600E07C2E80047D107C277FD07E07120DE3D5
:10011600120DFF308003208708D20B754000754111
:1001260000308208D20E754C00754D00300E190550
:100136004DE54D7002054CC394D0E54C940740083C
:10014600C20E754C00754D0020840302024C2083BC
:100156000302024C20050302024CE523146031140D
:10016600606D2402600302022430800320871B2076
:100176000418053CE53CC394025003020224753C76
:100186000075230112000E020224753C00020224AF
:100196003080032087140532E532C39402400E7581
:1001A6003200752302120CA880037532000537E56C
:1001B6003770020536C394A0E536940F4060752368
:1001C60000753200753C00753600753700804F307B
:1001D60080032087140538E538C39401400E75382E
:1001E60000D20AD20CD2078003753800053BE53BE6
:1001F6007002053AC394A0E53A940F402175230096
:10020600753C00753200753600753700753A007515
:100216003B00754A03754B207538007544002081F4
:1002260018E533C3943350110533E5339432401641
:10023600D20AD20C753333800D30810A2007077538
:100246003300C20AC20C30103E208412053DE53D43
:10025600B40A15D211C20920030ED201800AC211B6
:10026600755200753D00C201208312053EE53EB47D
:100276000A15D209C21120030ED201800AC20975DD
:100286002900753E00C20130013C054FE54F700262
:10029600054EC394A0E54E940F402BC201754E0047
:1002A600754F00D203752300753C00753200753614
:1002B60000753700753A00753B00754A03754B208B
:1002C60075380075440030870320801ED3E52794D7
:1002D60088E526941340137F03120C913087032080
:1002E6008008D2027526007527000527E5277002CB
:1002F6000526C39488E526941340087526137527AA
:1003060089C202D007D006D005D004D003D002D0CF
:0E03160001D000D0D0D082D083D0F0D0E03221
:030023000205F4DF
:1005F400C0E0C0F0C083C082C0D075D000C000C0CD
:1006040001C002C003C004C005C006C00730986A18
:10061400C298742A2531F8A699E5317009E52A7043
:10062400057531018054E531B40109E52B70057578
:1006340031028046E531B40209E52C7005753103B9
:100644008038E531B4030AE52DB41305753104800F
:1006540029E531B4040AE52EB4EC05753105801A98
:10066400E531B40512E52FB5250D753100D20D75B0
:100674004500120B008003753100D007D006D00569
:10068400D004D003D002D001D000D0D0D082D08307
:05069400D0F0D0E032BF
:1007CA00E4FAEF6405703343F620C2F8C2F9D2FAAC
:1007DA0043E180C2FCD2FBADF8EDC413135403FD10
:1007EA00AFE2AB07EB7E007802C333CE33CED8F943
:1007FA007C002DFBEC3EAF03FE22EF64067034430F
:10080A00F640D2F8C2F9D2FA43E180C2FCD2FBAD7B
:10081A00F8EDC413135403FDAFE27A00AB07EB7E85
:10082A00007802C333CE33CED8F97C002DFBEC3EE0
:03083A00FEAF030B
:01083D002298
:100542008E088F09C3E50994A4E5089402400CD2F1
:10055200947F1C120A947F3C0205DFC3E50994A232
:10056200E50894025016C3E5099491E50894024007
:100572000BD2947F0A120A947F648061C3E50994C6
:100582008FE50894025016C3E509947CE5089402AD
:10059200400BD2947F09120A947F648040C3E5091C
:1005A200947AE50894025016C3E5099463E5089429
:1005B20002400BD2947F08120A947F64801FC3E525
:1005C200099461E5089402501AC3E5099450E508BC
:1005D2009402400FD2947F07120A947F64120C9106
:1005E200C29422C3E509944EE50894025003120D09
:0205F2000222E3
:09072F0007530000000000000067
:100A05007560AAE4F55FE4F55EE560C2907D157C4E
:100A1500007F17120B93D290E56025E0F5607D15F8
:100A25007C007F2B120B93055EE55EC3940840D9CD
:100A35007560AA7D157C007F17120B93055FE55F36
:070A4500C3940340C1D290ED
:010A4C002287
:020967008F619E
:10096900E4F562E4F56374532562F8E630E70BC2F7
:1009790090E561FD7C007F248009C290E561FD7CE2
:10098900007F17120B93D29074532562F8C000E6CA
:1009990025E0D000F6E561FD7C007F0F120B930581
:1009A90063E563C3940840BE0562E562C3940340EE
:0109B900B28B
:0109BA00221A
:100C06008C1E8D1FD293D2A6C2A77553C87554E009
:100C16008F55120A05AF1F120967D2A7C293D2A633
:010C260022AB
:1008B00020910D0551E551B47803E4F551C20022B1
:1008C000200038D200E551D394234012E551D3944F
:1008D00050500BE52825E0F5285328FE8010E551FF
:1008E000D394504010E52825E0F528432801053928
:1008F000E4F55080020550E4F551220550E550C35F
:0C090000943C4007E4F539D200F53122A8
:100AC900E53964087030F539742A2531F8A628E526
:100AD900317009E52AB4C80475310122E531B40140
:100AE90009E52BB4E00475310222E531B40204D2E0
:070AF900068000E4F5312244
:04090C008C0C8D0DB5
:100910007553C87554E08F55E4F50EE4F50F745324
:10092000250EF8E630E70AC2A2AD0DAC0C7F24809C
:1009300008C2A2AD0DAC0C7F17120B93D2A2745358
:10094000250EF8C000E625E0D000F6AD0DAC0C7F1A
:100950000F120B93050FE50FC3940840C1050EE578
:060960000EC3940340B534
:01096600226E
:100C9100AE071FEE60107C137D88ED1DAA04700164
:060CA1001C4A60EC80F427
:010CA700222A
:100B9300E4FBFAEFF582C3EB9582EA94005018E484
:100BA300FEEEC39DEC6480F874809850030E80F1D0
:070BB3000BBB00010A80DC0E
:010BBA002218
:100C2700E4FDFCC3ED9FEC9E5015E4FBFA0BBB0003
:0F0C3700010AEB64644A70F50DBD00010C80E406
:010C4600228B
:100C7900E4FDFCC3ED9FEC9E500DE4FB0BBB04FCB3
:070C89000DBD00010C80EC21
:010C90002241
:100B3700E4F9E4FAFBC3EB9FEA9E50070BBB000105
:100B47000A80F209B932EBE4F9209215E4FAFBC303
:100B5700EB9DEA9C50070BBB00010A80F209B932F2
:010B6700E8A5
:010B6800226A
:02073800C112EC
:0D0DFF00120C60D212E4F5477F14020C9133
:100CF200120D20AF35AE34120542120A4D020B001E
:100BBB008E088F098C0A8D0BEBFD7C007FC112090F
:100BCB000CC2A2D2A3AD0BAC0AAF09AE08120B3705
:070BDB00D2A2D2A3C28522C1
:0E0DE300D285D2A2C2A3120B37D2A2D2A32273
:100B0000C210C205C209C211E4F523F53CF532F565
:100B100036F537F53AF53BF54AF54BF538F544C26D
:100B200004C20AF548C20CF549C201F533C20830C7
:070B30000004C20FF52422AE
:0E0DF100D210D205E4F523F53CC212F54722DC
:0A0E1700C2A47F0A120C91D2A4229B
:100CCE0075DCC075670075681DE567F5D1E568F5DB
:020CDE00D92219
:1009BB00EF1460191460251460312403703B7567C4
:1009CB000075680DE567F5D2E568F5DA2275670104
:1009DB00756800E567F5D3E568F5DB22756700758B
:1009EB006880E567F5D5E568F5DD22756700756804
:0A09FB0040E567F5D6E568F5DE2259
:08000300E4FF1209BB020CCE60
:04083E008C148D1574
:100842007E007C2B7D3312045AE47B0CFAF9F812F9
:1008520003C88F198E188D178C16C3E49FFFE49E70
:10086200F55A8F5CAE14AF15EE3395E0FDFCE47BD8
:100872000BFAF9F812033DE47B0CFAF9F81203C8FB
:100882008F1D8E1C8D1B8C1AC3E49FFFE49EF55BAB
:100892008F5D758911855A8C855C8A855B8D855D36
:0D08A2008BD2A9C28CD2ABD28ED2BBD2AF0A
:0108AF002226
:100B69007E007C2B7D3312045AE47B0CFAF9F812CF
:100B790003C88F138E128D118C10C3E49FFFE49E5E
:090B8900F55A8F5C758921D28CAC
:010B92002240
:040E290043870122D8
:100CE00053A2BF75985A758920758BFD758DFDD2FD
:020CF0008E2252
:080E21008F993099FDC299225E
:100BE2008B648A658966AF051DEF6017AB64056685
:100BF200E566AA657002056514F9120324FF120E58
:040C02002180E32248
:03073A0001690151
:040A9000D2947F116C
:020A94008F10C1
:100A9600C2A07F647E00120C27D2A07F967E001231
:100AA6000C27E4F511E511C395105016D2A17F1459
:100AB6007E00120C79C2A17F147E00120C790511FA
:020AC60080E3CB
:010AC800220B
:100C4700C294C2A1C2A07F5E7E01120C79D2A07F9E
:090C57005E7E01120C79D2942298
:100A4D00E56924FE6025047039120A907F28120C86
:100A5D00917F12120A947F32120C917F0B120A941D
:100A6D007F46120C91C29475690222120A907F235F
:100A7D00120C917F0C120A947F3C120C91C294754A
:030A8D00690122DA
:0F0D0200D2947F06120A947F50120C91C2942251
:10000E00D2947F02120A947F5A120C91C2947F1ED0
:03001E00020C9140
:100CA800D2947F1B120A947F8C120C91C2947F28D5
:030CB800020C919A
:0F0D1100D2947F03120A947FB4120C91C29422E1
:100CBB00D2947F16120A947FB4120C91C2947F14B3
:030CCB00020C9187
:0F0D2000D2947F17120A947F3C120C91C2942236
:100C6000D2947F18120A947F3C120C917F0D120AC5
:090C7000947F50120C91C29422F1
:0F0D2F00D2947F13120A947F50120C91C2942217
:0F0D3E00D2947F14120A947F78120C91C29422DF
:0F0D4D00D2947F13120A947F96120C91C29422B3
:0F0D5C00D2947F09120A947F78120C91C29422CC
:0B0E0C00120A907F78120C91C2942211
:0F0D6B00D2947F04120A947F96120C91C29422A4
:0F0D7A00D2947F03120A947F8C120C91C29422A0
:0F0D8900D2947F02120A947F78120C91C29422A6
:0F0D9800D2947F07120A947F50120C91C29422BA
:0F0DA700D2947F0B120A947F32120C91C29422C5
:0F0DB600D2947F0F120A947F32120C91C29422B2
:0F0DC500D2947F0C120A947F50120C91C2942288
:0F0DD400D2947F0D120A947F50120C91C2942278
:0300000002073EB6
:0C073E00787FE4F6D8FD7581690207851C
:10032400BB010689828A83E0225002E722BBFE02D7
:09033400E32289828A83E493220A
:10033D00E88FF0A4CC8BF0A42CFCE98EF0A42CFC5F
:10034D008AF0EDA42CFCEA8EF0A4CDA8F08BF0A4DD
:10035D002DCC3825F0FDE98FF0A42CCD35F0FCEB3C
:10036D008EF0A4FEA9F0EB8FF0A4CFC5F02ECD3901
:0F037D00FEE43CFCEAA42DCE35F0FDE43CFC226E
:10038C0075F008758200EF2FFFEE33FECD33CDCC28
:10039C0033CCC58233C5829BED9AEC99E5829840AB
:1003AC000CF582EE9BFEED9AFDEC99FC0FD5F0D688
:1003BC00E4CEFBE4CDFAE4CCF9A88222B800C1B9B2
:1003CC000059BA002DEC8BF084CFCECDFCE5F0CBF0
:1003DC00F97818EF2FFFEE33FEED33FDEC33FCEB29
:1003EC0033FB10D703994004EB99FB0FD8E5E4F9E4
:1003FC00FA227818EF2FFFEE33FEED33FDEC33FCD1
:10040C00C933C910D7059BE99A4007EC9BFCE99AC4
:10041C00F90FD8E0E4C9FAE4CCFB2275F010EF2F09
:10042C00FFEE33FEED33FDCC33CCC833C810D70709
:10043C009BEC9AE899400AED9BFDEC9AFCE899F844
:0E044C000FD5F0DAE4CDFBE4CCFAE4C8F922D7
:10045A00EC8EF0A4CCC5F0CCCDF8EFA4CEC5F02D2F
:10046A00FDE43CFCE8A42EC8C5F03DFDE43CFCEFED
:0D047A00A4FFE5F028FEE43DFDE43CFC227B
:10074A00020487E493A3F8E493A34003F68001F23A
:10075A0008DFF48029E493A3F85407240CC8C333B0
:10076A00C4540F4420C8834004F456800146F6DF7F
:10077A00E4800B0102040810204080900699E47E70
:10078A00019360BCA3FF543F30E509541FFEE49374
:10079A00A360010ECF54C025E060A840B8E493A33B
:1007AA00FAE493A3F8E493A3C8C582C8CAC583CA66
:1007BA00F0A3C8C582C8CAC583CADFE9DEE780BE1E
:01073D0000BB
:00000001FF
