:10023B00C104C111C10BC10D014800014900C10925
:10024B00C112013200023A000001440001380002E1
:10025B004A0000C10101230002360000013C0001ED
:10026B00460001520001290002420000072A00004B
:10027B000000000000C10601310001280001390017
:10028B00C180015000015100013E00013D00024EB2
:10029B000000C103013F0002340000013300C11014
:1002AB00012400C10202260000C10C02400000C163
:1002BB00080125FFC10E014500C105014700C1071B
:0802CB00C10F024C0000C10A42
:100837007534037535FFD2A2D2A3D2811209B87FCE
:1008470001120862C299C298D2ACD2A9D2BCD2AF67
:0B085700D290D20AD28C120B2680FB3C
:03000B0002038766
:10038700C0E0C0F0C083C082C0D075D000C000C03C
:1003970001C002C003C004C005C006C007855A8C4F
:1003A700855C8A0543E54370020542C394B8E5427C
:1003B700940B404F754200754300300A467B2A7DF7
:1003C700EC7C137FD07E071208B47F2812098E7D3C
:1003D7001C7C007FC31208DB7F061204B18E348FAA
:1003E700357D1C7C007FC31208DB7DBC7C1B7FD066
:1003F7007E07120AEB7F2812098E7D1C7C007FC3C3
:100407001208DBD007D006D005D004D003D002D025
:0E04170001D000D0D0D082D083D0F0D0E0321F
:030023000202E2F4
:1002E200C0E0C0F0C083C082C0D075D000C000C0E2
:1002F20001C002C003C004C005C006C00730986A2E
:10030200C298742A2531F8A699E5317009E52A7058
:10031200057531018054E531B40109E52B7005758D
:1003220031028046E531B40209E52C7005753103CE
:100332008038E531B4030AE52DB413057531048024
:1003420029E531B4040AE52EB4EC05753105801AAD
:10035200E531B40512E52FB5250D753100D20E75C4
:1003620045001207348003753100D007D006D0054E
:10037200D004D003D002D001D000D0D0D082D0831C
:05038200D0F0D0E032D4
:0302D300016501C1
:0207A3008F1EA7
:1007A500C2A07F647E00120924D2A07F967E00122B
:1007B5000924E4F51FE51FC3951E5016D2A17F1429
:1007C5007E00120976C2A17F147E00120976051FEC
:0207D50080E3BF
:0107D70022FF
:10094400C294C2A1C2A07F5E7E01120976D2A07FAA
:090954005E7E01120976D29422A4
:10080A00E56524FE6015047023D2947F0B1207A3BA
:10081A007F4612098EC29475650222D2947F0C1209
:0D082A0007A37F3C12098EC2947565012260
:0F09EC00D2947F061207A37F5012098EC2942265
:10000E00D2947F021207A37F5A12098EC2947F1ECA
:03001E0002098E46
:0F09FB00D2947F1B1207A37F8C12098EC2942205
:0F0A0A00D2947F031207A37FB412098EC29422E5
:1009A500D2947F161207A37FB412098EC2947F14C6
:0309B50002098EA6
:0F0A1900D2947F171207A37F3C12098EC294223A
:10095D00D2947F181207A37F3C12098E7F0D1207C8
:09096D00A37F4612098EC29422F8
:0F0A2800D2947F131207A37F5012098EC294221B
:0F0A3700D2947F141207A37F7812098EC29422E3
:0F0A4600D2947F131207A37F9612098EC29422B7
:0F0A5500D2947F091207A37F7812098EC29422D0
:0F0A6400D2947F0E1207A37F7812098EC29422BC
:0F0A7300D2947F041207A37F9612098EC2942299
:0F0A8200D2947F031207A37F8C12098EC2942295
:0F0A9100D2947F021207A37F7812098EC294229B
:0F0AA000D2947F071207A37F5012098EC29422AF
:0F0AAF00D2947F0B1207A37F3212098EC29422BA
:0F0ABE00D2947F0F1207A37F3212098EC29422A7
:0F0ACD00D2947F0C1207A37F5012098EC294227D
:0F0ADC00D2947F0D1207A37F5012098EC294226D
:1009B80053A2BF75985A758920758BFD758DFDD228
:0209C8008E227D
:080003008F993099FDC299228A
:100900008B5E8A5F8960AF051DEF6017AB5E056087
:10091000E560AA5F7002055F14F9120026FF12005D
:040920000380E3224B
:1009CA0075DCC075610075621DE561F5D1E562F5FA
:0209DA00D92220
:1006A200EF1460191460251460312403703B7561E6
:1006B2000075620DE561F5D2E562F5DA2275610138
:1006C200756200E561F5D3E562F5DB2275610075BF
:1006D2006280E561F5D5E562F5DD2275610075623E
:0A06E20040E561F5D6E562F5DE2281
:080B1E00E4FF1206A20209CA5D
:1008B4008E088F098C0A8D0BEBFD7C007FC112051D
:1008C400F3C2A2D2A3AD0BAC0AAF09AE081207D88B
:0708D400D2A2D2A3C28522CB
:0E0AEB00D285D2A2C2A31207D8D2A2D2A322D1
:10073400C211C205C209C212E4F523F53CF532F533
:1007440036F537F53AF53BF54AF54BF538F544C23D
:1007540004C20BF548C20DF549C201F533C208C203
:0807640013F547C210F5242231
:0E0AF900D211D205E4F523F53CC213F54722D5
:0A0B1400C2A47F0512098ED2A422AC
:10098E00AE071FEE60107C137D88ED1DAA0470016A
:06099E001C4A60EC80F42D
:0109A4002230
:10088C00E4FBFAEFF582C3EB9582EA94005018E48E
:10089C00FEEEC39DEC6480F874809850030E80F1DA
:0708AC000BBB00010A80DC18
:0108B3002222
:10092400E4FDFCC3ED9FEC9E5015E4FBFA0BBB0009
:0F093400010AEB64644A70F50DBD00010C80E40C
:010943002291
:10097600E4FDFCC3ED9FEC9E500DE4FB0BBB04FCB9
:070986000DBD00010C80EC27
:01098D002247
:1007D800E4F9E4FAFBC3EB9FEA9E50070BBB000168
:1007E8000A80F209B932EBE4F9209215E4FAFBC366
:1007F800EB9DEA9C50070BBB00010A80F209B93255
:01080800E807
:0108090022CC
:0202D600C11352
:0D0B070012095DD213E4F5477F1402098E38
:1009DC00120A19AF35AE3412018912080A02073413
:0902D800075300000000000000C3
:1006EC00750DAAE4F50CE4F50BE50DC2907D157CB7
:1006FC00007F1712088CD290E50D25E0F50D7D15C5
:10070C007C007F2B12088C050BE50BC3940840D999
:10071C00750DAA7D157C007F1712088C050CE50C55
:07072C00C3940340C1D29009
:0107330022A3
:02064E008F0B10
:10065000E4F50CE4F50D7453250CF8E630E70BC215
:1006600090E50BFD7C007F248009C290E50BFD7CAA
:10067000007F1712088CD2907453250CF8C000E646
:1006800025E0D000F6E50BFD7C007F0F12088C05FD
:100690000DE50DC3940840BE050CE50CC394034062
:0106A000B2A7
:0106A1002236
:1008DB008F088C098D0AD2937F1412098EC2A775CB
:1008EB0053C87554E08508551206ECAF0A12064E34
:0508FB00D2A7C2932208
:1005970020910D0551E551B47803E4F551C20022CD
:1005A700200038D200E551D394234012E551D3946B
:1005B70050500BE52825E0F5285328FE8010E5511B
:1005C700D394504010E52825E0F528432801053944
:1005D700E4F55080020550E4F551220550E550C37B
:0C05E700943C4007E4F539D200F53122C5
:10076C00E53964087030F539742A2531F8A628E586
:10077C00317009E52AB4C80475310122E531B401A0
:10078C0009E52BB4E00475310222E531B40204D240
:07079C00068000E4F53122A4
:0405F3008C0C8D0DD2
:1005F7007553C87554E08F55E4F50EE4F50F745341
:10060700250EF8E630E70AC2A2AD0DAC0C7F2480B8
:1006170008C2A2AD0DAC0C7F1712088CD2A274537E
:10062700250EF8C000E625E0D000F6AD0DAC0C7F36
:100637000F12088C050FE50FC3940840C1050EE59E
:060647000EC3940340B550
:01064D00228A
:100189008E638F64C3E5649401E5639403400CD2E4
:10019900947F1C1207A37F3C020226C3E5649401E5
:1001A900E56394035016C3E56494F4E5639402404F
:1001B9000BD2947F0A1207A37F648061C3E564941C
:1001C900F4E56394025016C3E56494D6E56394019B
:1001D900400BD2947F091207A37F648040C3E56472
:1001E90094D6E56394015016C3E56494C4E5639419
:1001F90001400BD2947F081207A37F64801FC3E5D7
:100209006494C4E5639401501AC3E56494B2E56348
:100219009401400FD2947F071207A37F6412098EBD
:10022900C29422C3E56494B2E563940150031209B0
:02023900EC22B5
:1004B100E4FAEF6405703343F620C2F8C2F9D2FAC8
:1004C10043E180C2FCD2FBADF8EDC413135403FD2C
:1004D100AFE2AB07EB7E007802C333CE33CED8F95F
:1004E1007C002DFBEC3EAF03FE22EF64067034432B
:1004F100F640D2F8C2F9D2FA43E180C2FCD2FBAD98
:10050100F8EDC413135403FDAFE27A00AB07EB7EA1
:10051100007802C333CE33CED8F97C002DFBEC3EFC
:03052100FEAF0327
:0105240022B4
:040525008C148D1590
:100529007E007C2B7D3312015CE47B0CFAF9F81216
:1005390000CA8F198E188D178C16C3E49FFFE49E8D
:10054900F55A8F5CAE14AF15EE3395E0FDFCE47BF4
:100559000BFAF9F812003FE47B0CFAF9F81200CA19
:100569008F1D8E1C8D1B8C1AC3E49FFFE49EF55BC7
:100579008F5D758911855A8C855C8A855B8D855D52
:0D0589008BD2A9C28CD2ABD28ED2BBD2AF26
:010596002242
:100862007E007C2B7D3312015CE47B0CFAF9F812DA
:1008720000CA8F138E128D118C10C3E49FFFE49E69
:09088200F55A8F5C758921C28CC6
:01088B00224A
:040B260043870122DE
:03000000020425D2
:0C042500787FE4F6D8FD75816502046C58
:10002600BB010689828A83E0225002E722BBFE02D8
:09003600E32289828A83E493220B
:10003F00E88FF0A4CC8BF0A42CFCE98EF0A42CFC60
:10004F008AF0EDA42CFCEA8EF0A4CDA8F08BF0A4DE
:10005F002DCC3825F0FDE98FF0A42CCD35F0FCEB3D
:10006F008EF0A4FEA9F0EB8FF0A4CFC5F02ECD3902
:0F007F00FEE43CFCEAA42DCE35F0FDE43CFC226F
:10008E0075F008758200EF2FFFEE33FECD33CDCC29
:10009E0033CCC58233C5829BED9AEC99E5829840AC
:1000AE000CF582EE9BFEED9AFDEC99FC0FD5F0D689
:1000BE00E4CEFBE4CDFAE4CCF9A88222B800C1B9B3
:1000CE000059BA002DEC8BF084CFCECDFCE5F0CBF1
:1000DE00F97818EF2FFFEE33FEED33FDEC33FCEB2A
:1000EE0033FB10D703994004EB99FB0FD8E5E4F9E5
:1000FE00FA227818EF2FFFEE33FEED33FDEC33FCD2
:10010E00C933C910D7059BE99A4007EC9BFCE99AC5
:10011E00F90FD8E0E4C9FAE4CCFB2275F010EF2F0A
:10012E00FFEE33FEED33FDCC33CCC833C810D7070A
:10013E009BEC9AE899400AED9BFDEC9AFCE899F845
:0E014E000FD5F0DAE4CDFBE4CCFAE4C8F922D8
:10015C00EC8EF0A4CCC5F0CCCDF8EFA4CEC5F02D30
:10016C00FDE43CFCE8A42EC8C5F03DFDE43CFCEFEE
:0D017C00A4FFE5F028FEE43DFDE43CFC227C
:10043100020837E493A3F8E493A34003F68001F2A2
:1004410008DFF48029E493A3F85407240CC8C333CC
:10045100C4540F4420C8834004F456800146F6DF9B
:10046100E4800B010204081020408090023BE47EEE
:10047100019360BCA3FF543F30E509541FFEE49390
:10048100A360010ECF54C025E060A840B8E493A357
:10049100FAE493A3F8E493A3C8C582C8CAC583CA82
:1004A100F0A3C8C582C8CAC583CADFE9DEE780BE3A
:0102E100001C
:00000001FF
