:10035300C104C111C10BC10D014800014900C1090C
:10036300C112013200023A000001440001380002C8
:100373004A0000C10101230002360000013C0001D4
:10038300460001520001290002420000072A000032
:100393000000000000C106013100012800013900FE
:1003A300C180015000015100013E00013D00024E99
:1003B3000000C103013F0002340000013300C110FB
:1003C300012400C10202260000C10C02400000C14A
:1003D300080125FFC10E014500C105014700C10702
:0803E300C10F024C0000C10A29
:100C16007534037535FFD2A2D2A3D281120D777F28
:100C260001120BECC299C298D2ACD2A9D2BCD2AFF7
:090C3600D290D20A120EE880FBF4
:03000B0002018966
:10018900C0E0C0F0C083C082C0D075D000C000C03C
:1001990001C002C003C004C005C006C007851B8C8E
:1001A900851D8A0543E54370020542C39410E54263
:1001B90094274040754200754300300A37120E7883
:1001C9007F287E00120CA0120670120DF07F061215
:1001D900052B8E348F35120670AF35AE3412029F5F
:1001E9007F287E00120CA0120EAB7F287E00120C15
:1001F900A012067030A51BE53F7017300E147F055D
:10020900FE120CA030A50B120DBD753F01754500FE
:10021900C20E20A51BE53FB40116200C13200F10B8
:100229007F057E00120CA020A506753F00120C83E5
:10023900308208D20F754C00754D00300F19054DED
:10024900E54D7002054CC394D0E54C94074008C2B3
:100259000F754C00754D0030800320870F053CE574
:100269003CC394024006753C00120D1C2081031208
:100279000DCE308403208303120D4AD007D006D057
:1002890005D004D003D002D001D000D0D0D082D084
:0602990083D0F0D0E0323A
:030023000203FADB
:1003FA00C0E0C0F0C083C082C0D075D000C000C0C9
:10040A0001C002C003C004C005C006C00730986A14
:10041A00C298742A2531F8A699E5317009E52A703F
:10042A00057531018054E531B40109E52B70057574
:10043A0031028046E531B40209E52C7005753103B5
:10044A008038E531B4030AE52DB41305753104800B
:10045A0029E531B4040AE52EB4EC05753105801A94
:10046A00E531B40512E52FB5250D753100D20E75AB
:10047A004500120B608003753100D007D006D00505
:10048A00D004D003D002D001D000D0D0D082D08303
:05049A00D0F0D0E032BB
:0303EB00011F01EE
:040AF000D2947F0E0F
:020AF4008F145D
:100AF600C2A07F647E00120C63D2A07F967E001295
:100B06000C63E4F515E515C395145016D2A17F14B0
:100B16007E00120D04C2A17F147E00120D0405157D
:020B260080E36A
:010B280022AA
:100CBB00C294C2A1C2A07F5E7E01120D04D2A07F9E
:090CCB005E7E01120D04D2942298
:10093C00E51F24FE602B047043120AF07F3C7E00FE
:10094C00120CA07F12120AF47F327E00120CA07FD0
:10095C000B120AF47F467E00120CA0C294751F0283
:10096C0022120AF07F237E00120CA07F0C120AF4D4
:0D097C007F3C7E00120CA0C294751F01226A
:100D9B00D2947F06120AF47F507E00120CA0C294EC
:010DAB002225
:100D1C00D2947F02120AF47F5A7E00120CA0C29465
:070D2C007F0A7E00020CA00B
:100D3300D2947F1B120AF47F8C7E00120CA0C29403
:070D43007F1E7E00020CA0E0
:100DAC00D2947F03120AF47FB47E00120CA0C2947A
:010DBC002214
:100D4A00D2947F16120AF47FB47E00120CA0C294C9
:070D5A007F147E00020CA0D3
:100DBD00D2947F17120AF47F3C7E00120CA0C294CD
:010DCD002203
:100C8300D2947F18120AF47F3C7E00120CA07F0DD1
:0D0C9300120AF47F507E00120CA0C29422C1
:100DCE00D2947F13120AF47F507E00120CA0C294AC
:010DDE0022F2
:100DDF00D2947F14120AF47F787E00120CA0C29472
:010DEF0022E1
:100DF000D2947F13120AF47F967E00120CA0C29444
:010E000022CF
:100E0100D2947F09120AF47F787E00120CA0C2945A
:010E110022BE
:0D0EC700120AF07F787E00120CA0C2942267
:100E1200D2947F04120AF47F967E00120CA0C29430
:010E220022AD
:100E2300D2947F03120AF47F8C7E00120CA0C2942A
:010E3300229C
:100E3400D2947F02120AF47F787E00120CA0C2942E
:010E4400228B
:100E4500D2947F07120AF47F507E00120CA0C29440
:010E5500227A
:100E5600D2947F0B120AF47F327E00120CA0C29449
:010E66002269
:100E6700D2947F0F120AF47F327E00120CA0C29434
:010E77002258
:100D770053A2BF75985A758920758BFD758DFDD265
:020D87008E22BA
:080003008F993099FDC299228A
:100C3F008B5A8A5B895CAF051DEF6017AB5A055C59
:100C4F00E55CAA5B7002055B14F9120026FF120027
:040C5F000380E32209
:100D890075DCC075630075641DE563F5D1E564F52F
:020D9900D9225D
:100A2200EF1460191460251460312403703B756360
:100A32000075640DE563F5D2E564F5DA22756301AC
:100A4200756400E563F5D3E564F5DB227563007533
:100A52006480E563F5D5E564F5DD227563007564B0
:0A0A620040E563F5D6E564F5DE22F9
:080EE000E4FF120A22020D8951
:100E780012089CC2A2D2A3120B94D2A2D2A3C285FA
:010E88002247
:100E89001208ECD2A2C2A312000ED2A2D2A3C2852A
:010E99002236
:0E0EAB00D285D2A2C2A3120BC0D2A2D2A32221
:100B6000C211C205C209C212E4F523F53CF532F503
:100B700036F537F53AF53BF54AF54BF538F544C20D
:100B800004C20BF548C20DF549C201F533C208C2D3
:040B900010F5242216
:0E0EB900D211D205E4F523F53CC213F5472211
:0C0ED400C2A47F0A7E00120CA0D2A4224F
:100CA000EF1FAA0670011E4A60107C137D88ED1D9F
:0A0CB000AA0470011C4A60E880F4F9
:010CBA002217
:100CD400E4FDFCC3ED9FEC9E500DE4FB0BBB15FC47
:070CE4000DBD00010C80ECC6
:010CEB0022E6
:100CEC00E4FDFCC3ED9FEC9E500DE4FB0BBB2AFC1A
:070CFC000DBD00010C80ECAE
:010D030022CD
:100C6300E4FDFCC3ED9FEC9E5015E4FBFA0BBB00C7
:0F0C7300010AEB64644A70F50DBD00010C80E4CA
:010C8200224F
:100D0400E4FDFCC3ED9FEC9E500DE4FB0BBB04FC27
:070D14000DBD00010C80EC95
:010D1B0022B5
:100B9400E4FDE4FEFF0FBF00010EBE0FF8BFA0F599
:100BA4000DBD32EEE4FD209212E4FEFF0FBF000102
:0B0BB4000EBE27F8BF10F50DBD32EBA0
:010BBF002213
:100BC000E4FDE4FEFF0FBF00010EBE17F8BF70F595
:100BD0000DBD32EEE4FD209212E4FEFF0FBF0001D6
:0B0BE0000EBE2EF8BFE0F50DBD32EB9D
:010BEB0022E7
:10000E00E4FFE4FDFC0DBD00010CBC3EF8BD80F527
:04001E000FBF32EEF0
:0100220022BB
:0203EE00C11339
:100E9A00120EAB120C83D213E4F5477F14FE020C38
:010EAA00A0A7
:100D6100120E78120DBDAF35AE3412029F12093C3E
:060D7100E4F546020B60F0
:0903F000075300000000000000AA
:100A6C007516AAE4F515E4F514E516C2907F507ED0
:100A7C0000120CD4D290E51625E0F5167F967E0078
:100A8C00120CD40514E514C3940840DD7516AA7F26
:100A9C00507E00120CD40515E515C3940340C7D243
:010AAC0090B9
:010AAD002226
:0B098900C2A77553C87554E07555C136
:10099400755FAAE4F55EE4F55DE55FC2907F507E85
:1009A40000120CD4D290E55F25E0F55F7F967E00BF
:1009B400120CD4055DE55DC3940840DD755FAA7F24
:1009C400507E00120CD4055EE55EC3940340C7D28A
:0109D4009092
:0109D50022FF
:100AAE007562AAE4F561E4F560E562C2907F507E5E
:100ABE0000120CD4D290E56225E0F5627F967E009E
:100ACE00120CD40560E560C3940840DD7562AA7F00
:100ADE00507E00120CD40561E561C3940340C7D269
:010AEE009077
:010AEF0022E4
:10084800D293D2A6120989E4F565E4F566745325B6
:1008580065F8E630E706C2907F788004C2907F5042
:100868007E00120CECD29074532565F8C000E62582
:10087800E0D000F67F327E00120CEC0566E566C318
:10088800940840C90565E565C3940340BDD2A7C275
:0308980093D2A652
:01089B00223A
:1009D600120989E4F567E4F56874532567F8E6308B
:1009E600E706C2907F788004C2907F507E00120C8A
:1009F600ECD29074532567F8C000E625E0D000F6E7
:100A06007F327E00120CEC0568E568C3940840C985
:0B0A16000567E567C3940340BDC2A75D
:010A210022B2
:10061100D293C2A6C2A77553C87554E07555C212CC
:100621000994E4F569E4F56A74532569F8E630E75D
:1006310006C2907F788004C2907F507E00120CEC3D
:10064100D29074532569F8C000E625E0D000F67F0A
:10065100327E00120CEC056AE56AC3940840C905B4
:0E06610069E569C3940340BDD2A7D2A6C29337
:01066F002268
:10067000D293C2A6C2A77553C87554E07555C3126C
:100680000A6CE4F512E4F51374532512F8E630E72A
:1006900006C2907F788004C2907F507E00120CECDE
:1006A000D29074532512F8C000E625E0D000F67F02
:1006B000327E00120CEC0513E513C3940840C90503
:0E06C00012E512C3940340BDD2A7D2A6C29386
:0106CE002209
:1006CF00D293C2A6C2A77553C87554E07555C4120C
:1006DF000AAEE4F56BE4F56C7453256BF8E630E77E
:1006EF0006C2907F788004C2907F507E00120CEC7F
:1006FF00D2907453256BF8C000E625E0D000F67F4A
:10070F00327E00120CEC056CE56CC3940840C905F1
:0E071F006BE56BC3940340BDD2A7D2A6C29374
:01072D0022A9
:10072E00D293C2A6C2A77553C87554E07555C512AB
:10073E000AAEE4F56DE4F56E7453256DF8E630E718
:10074E0006C2907F788004C2907F507E00120CEC1F
:10075E00D2907453256DF8C000E625E0D000F67FE8
:10076E00327E00120CEC056EE56EC3940840C9058E
:0E077E006DE56DC3940340BDD2A7D2A6C29311
:01078C00224A
:10078D00D293C2A6C2A77553C87554E07555C6124B
:10079D000AAEE4F56FE4F5707453256FF8E630E7B3
:1007AD0006C2907F788004C2907F507E00120CECC0
:1007BD00D2907453256FF8C000E625E0D000F67F87
:1007CD00327E00120CEC0570E570C3940840C9052B
:0E07DD006FE56FC3940340BDD2A7D2A6C293AE
:0107EB0022EB
:1007EC0020910D0551E551B47803E4F551C2002276
:1007FC00200038D200E551D394234012E551D39414
:10080C0050500BE52825E0F5285328FE8010E551C3
:10081C00D394504010E52825E0F5284328010539EC
:10082C00E4F55080020550E4F551220550E550C323
:0C083C00943C4007E4F539D200F531226D
:100B2900E53964087030F539742A2531F8A628E5C5
:100B3900317009E52AB4C80475310122E531B401DF
:100B490009E52BB4E00475310222E531B40204D27F
:070B5900068000E4F53122E3
:10089C007553C87554E07555C1E4F512E4F513743D
:1008AC00532512F8E630E706C2A27F788004C2A274
:1008BC007F507E00120CECD2A274532512F8C000AB
:1008CC00E625E0D000F67F327E00120CEC0513E535
:0F08DC0013C3940840C90512E512C3940340BD2D
:0108EB0022EA
:1008EC007553C87554E07555C1E4F571E4F572742F
:1008FC00532571F8E630E706C2A37F788004C2A3C3
:10090C007F507E00120CECD2A374532571F8C000FA
:10091C00E625E0D000F67F327E00120CEC0572E585
:0F092C0072C3940840C90571E571C3940340BDBF
:01093B002299
:10029F008E128F13C3E51394F3E5129403400CD21F
:1002AF00947F1C120AF47F3C02033CC3E51394F2C3
:1002BF00E51294035016C3E51394DAE51294034044
:1002CF000BD2947F0A120AF47F648061C3E5139402
:1002DF00D9E51294035016C3E51394CBE51294039A
:1002EF00400BD2947F09120AF47F648040C3E51358
:1002FF0094CAE51294035016C3E51394B0E5129413
:10030F0003400BD2947F08120AF47F64801FC3E569
:10031F001394AFE5129403501CC3E5139497E512A1
:10032F0094034011D2947F07120AF47F647E001267
:10033F000CA0C29422C3E5139495E51294035003C5
:04034F00120D9B22CE
:10052B00E4FAEF6405703343F620C2F8C2F9D2FA4D
:10053B0043E180C2FCD2FBADF8EDC413135403FDB1
:10054B00AFE2AB07EB7E007802C333CE33CED8F9E4
:10055B007C002DFBEC3EAF03FE22EF6406703443B0
:10056B00F640D2F8C2F9D2FA43E180C2FCD2FBAD1D
:10057B00F8EDC413135403FDAFE27A00AB07EB7E27
:10058B00007802C333CE33CED8F97C002DFBEC3E82
:03059B00FEAF03AD
:01059E00223A
:04059F008C088D092E
:1005A3007E007C2B7D3312015CE47B0CFAF9F8129C
:1005B30000CA8F0D8E0C8D0B8C0AC3E49FFFE49E43
:1005C300F51B8F1DAE08AF09EE3395E0FDFCE47B10
:1005D3000BFAF9F812003FE47B0CFAF9F81200CA9F
:1005E3008F118E108D0F8C0EC3E49FFFE49EF51CBC
:1005F3008F1E758911851B8C851D8A851C8D851E13
:0D0603008BD2A9D28CD2ABD28ED2BBD2AF9B
:0106100022C7
:100BEC007E007C2B7D3312015CE47B0CFAF9F8124D
:100BFC0000CA8F1A8E198D188C17C3E49FFFE49EC0
:090C0C00F51B8F1D758921D28CA6
:010C150022BC
:040EE8004387012219
:0300000002049F58
:0C049F00787FE4F6D8FD7581720204E657
:10002600BB010689828A83E0225002E722BBFE02D8
:09003600E32289828A83E493220B
:10003F00E88FF0A4CC8BF0A42CFCE98EF0A42CFC60
:10004F008AF0EDA42CFCEA8EF0A4CDA8F08BF0A4DE
:10005F002DCC3825F0FDE98FF0A42CCD35F0FCEB3D
:10006F008EF0A4FEA9F0EB8FF0A4CFC5F02ECD3902
:0F007F00FEE43CFCEAA42DCE35F0FDE43CFC226F
:10008E0075F008758200EF2FFFEE33FECD33CDCC29
:10009E0033CCC58233C5829BED9AEC99E5829840AC
:1000AE000CF582EE9BFEED9AFDEC99FC0FD5F0D689
:1000BE00E4CEFBE4CDFAE4CCF9A88222B800C1B9B3
:1000CE000059BA002DEC8BF084CFCECDFCE5F0CBF1
:1000DE00F97818EF2FFFEE33FEED33FDEC33FCEB2A
:1000EE0033FB10D703994004EB99FB0FD8E5E4F9E5
:1000FE00FA227818EF2FFFEE33FEED33FDEC33FCD2
:10010E00C933C910D7059BE99A4007EC9BFCE99AC5
:10011E00F90FD8E0E4C9FAE4CCFB2275F010EF2F0A
:10012E00FFEE33FEED33FDCC33CCC833C810D7070A
:10013E009BEC9AE899400AED9BFDEC9AFCE899F845
:0E014E000FD5F0DAE4CDFBE4CCFAE4C8F922D8
:10015C00EC8EF0A4CCC5F0CCCDF8EFA4CEC5F02D30
:10016C00FDE43CFCE8A42EC8C5F03DFDE43CFCEFEE
:0D017C00A4FFE5F028FEE43DFDE43CFC227C
:1004AB00020C16E493A3F8E493A34003F68001F245
:1004BB0008DFF48029E493A3F85407240CC8C33352
:1004CB00C4540F4420C8834004F456800146F6DF21
:1004DB00E4800B0102040810204080900353E47E5B
:1004EB00019360BCA3FF543F30E509541FFEE49316
:1004FB00A360010ECF54C025E060A840B8E493A3DD
:10050B00FAE493A3F8E493A3C8C582C8CAC583CA07
:10051B00F0A3C8C582C8CAC583CADFE9DEE780BEBF
:0103F9000003
:00000001FF
