:10023B00C104C111C10BC10D014800014900C10925
:10024B00C112013200023A000001440001380002E1
:10025B004A0000C10101230002360000013C0001ED
:10026B00460001520001290002420000072A00004B
:10027B000000000000C10601310001280001390017
:10028B00C180015000015100013E00013D00024EB2
:10029B000000C103013F0002340000013300C11014
:1002AB00012400C10202260000C10C02400000C163
:1002BB00080125FFC10E014500C105014700C1071B
:0802CB00C10F024C0000C10A42
:10088C0012099D7F01120813C299C298D2ACD2A949
:10089C00D2BCD2AFD290C2A7D20A7534037535FF41
:0508AC00120AF880FBB8
:03000B000204F9F3
:1004F900C0E0C0F0C083C082C0D075D000C000C0C9
:1005090001C002C003C004C005C006C007855E8CD7
:1005190085608A0543E54370020542C394B8E54204
:10052900940B4012754200754300300A097D2A7CFC
:10053900007FC11208D5D007D006D005D004D0035A
:10054900D002D001D000D0D0D082D083D0F0D0E07A
:01055900326F
:030023000202E2F4
:1002E200C0E0C0F0C083C082C0D075D000C000C0E2
:1002F20001C002C003C004C005C006C00730986A2E
:10030200C298742A2531F8A699E5317009E52A7058
:10031200057531018054E531B40109E52B7005758D
:1003220031028046E531B40209E52C7005753103CE
:100332008038E531B4030AE52DB413057531048024
:1003420029E531B4040AE52EB4EC05753105801AAD
:10035200E531B40512E52FB5250D753100D20E75C4
:1003620045001207738003753100D007D006D0050F
:10037200D004D003D002D001D000D0D0D082D0831C
:05038200D0F0D0E032D4
:0302D300011F0107
:04073A00D2947F11C5
:02073E008F65C5
:10074000C2A07F647E001208F6D2A07F967E0012BF
:1007500008F6E4F566E566C395655016D2A17F14E8
:100760007E00120948C2A17F147E00120948056666
:0207700080E324
:010772002264
:10091600C294C2A1C2A07F5E7E01120948D2A07F06
:090926005E7E01120948D2942200
:1006F700E51F24FE602504703912073A7F28120986
:10070700607F1212073E7F321209607F0B12073E8D
:100717007F46120960C294751F022212073A7F238F
:100727001209607F0C12073E7F3C120960C2947564
:030737001F01227D
:0F09D100D2947F0612073E7F50120960C2942213
:10000E00D2947F0212073E7F5A120960C2947F1E5D
:03001E0002096074
:10097700D2947F1B12073E7F8C120960C2947F2896
:0309870002096002
:0F09E000D2947F0312073E7FB4120960C29422A3
:10098A00D2947F1612073E7FB4120960C2947F1474
:03099A00020960EF
:0F09EF00D2947F1712073E7F3C120960C29422F8
:10092F00D2947F1812073E7F3C1209607F0D120789
:09093F003E7F50120960C29422AF
:0F09FE00D2947F1312073E7F50120960C29422D9
:0F0A0D00D2947F1412073E7F78120960C29422A0
:0F0A1C00D2947F1312073E7F96120960C2942274
:0F0A2B00D2947F0912073E7F78120960C294228D
:0B0ADB0012073A7F78120960C29422D3
:0F0A3A00D2947F0412073E7F96120960C2942265
:0F0A4900D2947F0312073E7F8C120960C2942261
:0F0A5800D2947F0212073E7F78120960C2942267
:0F0A6700D2947F0712073E7F50120960C294227B
:0F0A7600D2947F0B12073E7F32120960C2942286
:0F0A8500D2947F0F12073E7F32120960C2942273
:0F0A9400D2947F0C12073E7F50120960C2942249
:0F0AA300D2947F0D12073E7F50120960C2942239
:10099D0053A2BF75985A758920758BFD758DFDD243
:0209AD008E2298
:080003008F993099FDC299228A
:1008B1008B628A638964AF051DEF6017AB620564C3
:1008C100E564AA637002056314F9120026FF1200A1
:0408D1000380E3229B
:1009AF0075DCC075670075681DE567F5D1E568F5FD
:0209BF00D9223B
:10066500EF1460191460251460312403703B75671D
:100675000075680DE567F5D2E568F5DA227567015D
:10068500756800E567F5D3E568F5DB2275670075E4
:100695006880E567F5D5E568F5DD2275670075685D
:0A06A50040E567F5D6E568F5DE22B2
:080AF000E4FF1206650209AFE4
:100865008E1B8F1C8C1D8D1EEBFD7C007FC1120520
:10087500B6C2A2D2A3AD1EAC1DAF1CAE1B1207E1C2
:07088500D2A2D2A3C285221A
:0E0AB200D285D2A2C2A31207E1D2A2D2A32201
:10077300C211C205C209C212E4F523F53CF532F5F4
:1007830036F537F53AF53BF54AF54BF538F544C2FE
:1007930004C20BF548C20DF549C201F533C2083056
:0707A3000004C210F524223E
:0E0AC000D211D205E4F523F53CC213F547220E
:0A0AE600C2A47F0A120960D2A42204
:10096000AE071FEE60107C137D88ED1DAA04700198
:060970001C4A60EC80F45B
:01097600225E
:10083D00E4FBFAEFF582C3EB9582EA94005018E4DD
:10084D00FEEEC39DEC6480F874809850030E80F129
:07085D000BBB00010A80DC67
:010864002271
:1008F600E4FDFCC3ED9FEC9E5015E4FBFA0BBB0038
:0F090600010AEB64644A70F50DBD00010C80E43A
:0109150022BF
:10094800E4FDFCC3ED9FEC9E500DE4FB0BBB04FCE7
:070958000DBD00010C80EC55
:01095F002275
:1007E100E4F9E4FAFBC3EB9FEA9E50070BBB00015F
:1007F1000A80F209B932EBE4F9209215E4FAFBC35D
:10080100EB9DEA9C50070BBB00010A80F209B9324B
:01081100E8FE
:0108120022C3
:0202D600C11352
:0D0ACE0012092FD213E4F5477F14020960CE
:1009C1001209EFAF35AE341201891206F70207732F
:0902D800075300000000000000C3
:1006AF007516AAE4F515E4F514E516C2907D157CD0
:1006BF00007F1712083DD290E51625E0F5167D153F
:1006CF007C007F2B12083D0514E514C3940840D914
:1006DF007516AA7D157C007F1712083D0515E515C7
:0706EF00C3940340C1D29047
:0106F60022E1
:020611008F1444
:10061300E4F515E4F51674532515F8E630E70BC237
:1006230090E514FD7C007F248009C290E514FD7CD5
:10063300007F1712083DD29074532515F8C000E6C9
:1006430025E0D000F6E514FD7C007F0F12083D0580
:1006530016E516C3940840BE0515E515C39403407B
:01066300B2E4
:010664002273
:1008D5008C128D13D293D2A6C2A77553C87554E056
:1008E5008F551206AFAF13120611D2A7C293D2A627
:0108F50022E0
:10055A0020910D0551E551B47803E4F551C200220A
:10056A00200038D200E551D394234012E551D394A8
:10057A0050500BE52825E0F5285328FE8010E55158
:10058A00D394504010E52825E0F528432801053981
:10059A00E4F55080020550E4F551220550E550C3B8
:0C05AA00943C4007E4F539D200F5312202
:1007AA00E53964087030F539742A2531F8A628E548
:1007BA00317009E52AB4C80475310122E531B40162
:1007CA0009E52BB4E00475310222E531B40204D202
:0707DA00068000E4F5312266
:0405B6008C5A8D5B73
:1005BA007553C87554E08F55E4F55CE4F55D7453E2
:1005CA00255CF8E630E70AC2A2AD5BAC5A7F24800C
:1005DA0008C2A2AD5BAC5A7F1712083DD2A274536F
:1005EA00255CF8C000E625E0D000F6AD5BAC5A7F8A
:1005FA000F12083D055DE55DC3940840C1055CE541
:06060A005CC3940340B53F
:0106100022C7
:100189008E698F6AC3E56A94A4E5699402400CD22A
:10019900947F1C12073E7F3C020226C3E56A94A2A3
:1001A900E56994025016C3E56A9491E569940240A1
:1001B9000BD2947F0A12073E7F648061C3E56A947B
:1001C9008FE56994025016C3E56A947CE569940247
:1001D900400BD2947F0912073E7F648040C3E56AD1
:1001E900947AE56994025016C3E56A9463E56994C3
:1001F90002400BD2947F0812073E7F64801FC3E53B
:100209006A9461E5699402501AC3E56A9450E569F4
:100219009402400FD2947F0712073E7F641209604F
:10022900C29422C3E56A944EE56994025003120907
:02023900D122D0
:10041300E4FAEF6405703343F620C2F8C2F9D2FA66
:1004230043E180C2FCD2FBADF8EDC413135403FDCA
:10043300AFE2AB07EB7E007802C333CE33CED8F9FD
:100443007C002DFBEC3EAF03FE22EF6406703443C9
:10045300F640D2F8C2F9D2FA43E180C2FCD2FBAD36
:10046300F8EDC413135403FDAFE27A00AB07EB7E40
:10047300007802C333CE33CED8F97C002DFBEC3E9B
:03048300FEAF03C6
:010486002253
:040487008C088D0947
:10048B007E007C2B7D3312015CE47B0CFAF9F812B5
:10049B0000CA8F0D8E0C8D0B8C0AC3E49FFFE49E5C
:1004AB00F55E8F60AE08AF09EE3395E0FDFCE47BA3
:1004BB000BFAF9F812003FE47B0CFAF9F81200CAB8
:1004CB008F118E108D0F8C0EC3E49FFFE49EF55F92
:1004DB008F61758911855E8C85608A855F8D8561DD
:0D04EB008BD2A9C28CD2ABD28ED2BBD2AFC5
:0104F80022E1
:100813007E007C2B7D3312015CE47B0CFAF9F81229
:1008230000CA8F1A8E198D188C17C3E49FFFE49E9C
:09083300F55E8F60758921D28CFD
:01083C002299
:040AF800438701220D
:0300000002038771
:0C038700787FE4F6D8FD75816A0203CE91
:10002600BB010689828A83E0225002E722BBFE02D8
:09003600E32289828A83E493220B
:10003F00E88FF0A4CC8BF0A42CFCE98EF0A42CFC60
:10004F008AF0EDA42CFCEA8EF0A4CDA8F08BF0A4DE
:10005F002DCC3825F0FDE98FF0A42CCD35F0FCEB3D
:10006F008EF0A4FEA9F0EB8FF0A4CFC5F02ECD3902
:0F007F00FEE43CFCEAA42DCE35F0FDE43CFC226F
:10008E0075F008758200EF2FFFEE33FECD33CDCC29
:10009E0033CCC58233C5829BED9AEC99E5829840AC
:1000AE000CF582EE9BFEED9AFDEC99FC0FD5F0D689
:1000BE00E4CEFBE4CDFAE4CCF9A88222B800C1B9B3
:1000CE000059BA002DEC8BF084CFCECDFCE5F0CBF1
:1000DE00F97818EF2FFFEE33FEED33FDEC33FCEB2A
:1000EE0033FB10D703994004EB99FB0FD8E5E4F9E5
:1000FE00FA227818EF2FFFEE33FEED33FDEC33FCD2
:10010E00C933C910D7059BE99A4007EC9BFCE99AC5
:10011E00F90FD8E0E4C9FAE4CCFB2275F010EF2F0A
:10012E00FFEE33FEED33FDCC33CCC833C810D7070A
:10013E009BEC9AE899400AED9BFDEC9AFCE899F845
:0E014E000FD5F0DAE4CDFBE4CCFAE4C8F922D8
:10015C00EC8EF0A4CCC5F0CCCDF8EFA4CEC5F02D30
:10016C00FDE43CFCE8A42EC8C5F03DFDE43CFCEFEE
:0D017C00A4FFE5F028FEE43DFDE43CFC227C
:1003930002088CE493A3F8E493A34003F68001F2EC
:1003A30008DFF48029E493A3F85407240CC8C3336B
:1003B300C4540F4420C8834004F456800146F6DF3A
:1003C300E4800B010204081020408090023BE47E8D
:1003D300019360BCA3FF543F30E509541FFEE4932F
:1003E300A360010ECF54C025E060A840B8E493A3F6
:1003F300FAE493A3F8E493A3C8C582C8CAC583CA21
:10040300F0A3C8C582C8CAC583CADFE9DEE780BED8
:0102E100001C
:00000001FF
