:10023B00C104C111C10BC10D014800014900C10925
:10024B00C112013200023A000001440001380002E1
:10025B004A0000C10101230002360000013C0001ED
:10026B00460001520001290002420000072A00004B
:10027B000000000000C10601310001280001390017
:10028B00C180015000015100013E00013D00024EB2
:10029B000000C103013F0002340000013300C11014
:1002AB00012400C10202260000C10C02400000C163
:1002BB00080125FFC10E014500C105014700C1071B
:0802CB00C10F024C0000C10A42
:1009D100120CCF7F0112097FC299C298D2ACD2A961
:1009E100D2BCD2AFD290C2A7D20A7534037535FFFB
:0509F100120E2D80FB39
:03000B000204F9F3
:1004F900C0E0C0F0C083C082C0D075D000C000C0C9
:1005090001C002C003C004C005C006C007851B8C1A
:10051900851D8A0543E54370020542C394B8E54247
:10052900940B4012754200754300300A097D2A7CFC
:10053900007FC1120A1AD007D006D005D004D00313
:10054900D002D001D000D0D0D082D083D0F0D0E07A
:01055900326F
:030023000202E2F4
:1002E200C0E0C0F0C083C082C0D075D000C000C0E2
:1002F20001C002C003C004C005C006C00730986A2E
:10030200C298742A2531F8A699E5317009E52A7058
:10031200057531018054E531B40109E52B7005758D
:1003220031028046E531B40209E52C7005753103CE
:100332008038E531B4030AE52DB413057531048024
:1003420029E531B4040AE52EB4EC05753105801AAD
:10035200E531B40512E52FB5250D753100D20E75C4
:1003620045001208DF8003753100D007D006D005A2
:10037200D004D003D002D001D000D0D0D082D0831C
:05038200D0F0D0E032D4
:0302D300011F0107
:0408A600D2947F0E5B
:0208AA008F5D60
:1008AC00C2A07F647E00120A3BD2A07F967E00120B
:1008BC000A3BE4F55EE55EC3955D5016D2A17F144C
:1008CC007E00120C12C2A17F147E00120C12055E67
:0208DC0080E3B7
:0108DE0022F7
:100B4B00C294C2A1C2A07F5E7E01120C12D2A07F02
:090B5B005E7E01120C12D29422FC
:10086300E51F24FE60250470391208A67F3C120C94
:100873002A7F121208AA7F32120C2A7F0B1208AAAF
:100883007F46120C2AC294751F02221208A67F23E8
:10089300120C2A7F0C1208AA7F3C120C2AC29475F0
:0308A3001F012210
:0F0D0300D2947F061208AA7F50120C2AC29422A3
:10000E00D2947F021208AA7F5A120C2AC2947F1E23
:03001E00020C2AA7
:100C8300D2947F1B1208AA7F8C120C2AC2947F284D
:030C9300020C2A26
:0F0D1200D2947F031208AA7FB4120C2AC2942233
:100C9600D2947F161208AA7FB4120C2AC2947F142B
:030CA600020C2A13
:0F0D2100D2947F171208AA7F3C120C2AC2942288
:100B6400D2947F181208AA7F3C120C2A7F0D120817
:090B7400AA7F50120C2AC294223F
:0F0D3000D2947F131208AA7F50120C2AC2942269
:0F0D3F00D2947F141208AA7F78120C2AC2942231
:0F0D4E00D2947F131208AA7F96120C2AC2942205
:0F0D5D00D2947F091208AA7F78120C2AC294221E
:0B0E10001208A67F78120C2AC2942260
:0F0D6C00D2947F041208AA7F96120C2AC29422F6
:0F0D7B00D2947F031208AA7F8C120C2AC29422F2
:0F0D8A00D2947F021208AA7F78120C2AC29422F8
:0F0D9900D2947F071208AA7F50120C2AC294220C
:0F0DA800D2947F0B1208AA7F32120C2AC2942217
:0F0DB700D2947F0F1208AA7F32120C2AC2942204
:0F0DC600D2947F0C1208AA7F3C120C2AC29422EE
:0F0DD500D2947F0D1208AA7F3C120C2AC29422DE
:100CCF0053A2BF75985A758920758BFD758DFDD20E
:020CDF008E2263
:080003008F993099FDC299228A
:1009F6008B5A8A5B895CAF051DEF6017AB5A055CA5
:100A0600E55CAA5B7002055B14F9120026FF120072
:040A16000380E32254
:100CE10075DCC0755F0075601DE55FF5D1E560F5E8
:020CF100D92206
:10081900EF1460191460251460312403703B755F6F
:100829000075600DE55FF5D2E560F5DA22755F01C7
:10083900756000E55FF5D3E560F5DB22755F00754E
:100849006080E55FF5D5E560F5DD22755F007560CF
:0A08590040E55FF5D6E560F5DE220C
:080E2500E4FF120819020CE1C0
:100B7D001205B6C2A2D2A37D107C277FA07E0F12D4
:090B8D00094DD2A2D2A3C28522B7
:100B960012060EC2A2D2A37D407C1F7FD07E071212
:090BA600094DD2A2D2A3C285229E
:100BAF0012060EC2A2D2A37D807C3E7FD07E07129A
:090BBF00094DD2A2D2A3C2852285
:100BC800120666C2A2D2A37D407C1F7FD07E071288
:090BD800094DD2A2D2A3C285226C
:100BE1001206BEC2A2D2A37D1C7C257FD07E071235
:090BF100094DD2A2D2A3C2852253
:100BFA00120716D2A2C2A37DB07C36E4FFFE120908
:080C0A004DD2A2D2A3C2852243
:100C4100D285D2A2C2A37DC87C327F887E131209CD
:060C51004DD2A2D2A32245
:100C5700D285D2A2C2A37D207C4E7F887E13120943
:060C67004DD2A2D2A3222F
:1008DF00C211C205C209C212E4F523F53CF532F587
:1008EF0036F537F53AF53BF54AF54BF538F544C291
:1008FF0004C20BF548C20DF549C201F533C20830E9
:07090F000004C210F52422D0
:0E0E0200D211D205E4F523F53CC213F54722C8
:0A0E1B00C2A47F0A120C2AD2A422FE
:100C2A00AE071FEE60107C137D88ED1DAA047001CB
:060C3A001C4A60EC80F48E
:010C40002291
:1009A900E4FBFAEFF582C3EB9582EA94005018E470
:1009B900FEEEC39DEC6480F874809850030E80F1BC
:0709C9000BBB00010A80DCFA
:0109D0002204
:100A3B00E4FDFCC3ED9FEC9E5015E4FBFA0BBB00F1
:0F0A4B00010AEB64644A70F50DBD00010C80E4F4
:010A5A002279
:100C1200E4FDFCC3ED9FEC9E500DE4FB0BBB04FC1A
:070C22000DBD00010C80EC88
:010C290022A8
:10094D00E4F9E4FAFBC3EB9FEA9E50070BBB0001F1
:10095D000A80F209B932EBE4F9209215E4FAFBC3EF
:10096D00EB9DEA9C50070BBB00010A80F209B932DE
:01097D00E891
:01097E002256
:0202D600C11352
:100CF300120C41120B64D213E4F5477F14020C2A41
:100CA900120B7D120D21AF35AE3412018912086382
:030CB9000208DF4F
:100CBC00120BC8120D21AF35AE3412018912086324
:030CCC000208DF3C
:0902D800075300000000000000C3
:0F076E00D293C2A6C2A77553C87554E07555C281
:10077D007516AAE4F515E4F514E516C2907D157C01
:10078D00007F171209A9D290E51625E0F5167D1503
:10079D007C007F2B1209A90514E514C3940840D9D8
:1007AD007516AA7D157C007F171209A90515E5158B
:0707BD00C3940340C1D29078
:0107C4002212
:0207C5008F148F
:1007C700E4F515E4F51674532515F8E630E70BC282
:1007D70090E514FD7C007F248009C290E514FD7C20
:1007E700007F171209A9D29074532515F8C000E6A7
:1007F70025E0D000F6E514FD7C007F0F1209A9055E
:1008070016E516C3940840BE0515E515C3940340C5
:01081700B22E
:0108180022BD
:100A1A008C128D13D293D2A6C2A77553C87554E00F
:100A2A008F5512077DAF131207C5D2A7C293D2A65C
:010A3A002299
:100C6D00C2A77553C87554E07555C112077D7F2A0B
:060C7D001207C5C2A72208
:0F0DE40012076E7F2A1207C5D2A7D2A6C293228A
:0F0DF30012076E7F1C1207C5D2A7D2A6C2932289
:100A5B00D293C2A6C2A77553C87554E07555C3127D
:0E0A6B00077D7F2A1207C5D2A7D2A6C293220A
:100A7900D293C2A6C2A77553C87554E07555C3125F
:0E0A8900077D7F1C1207C5D2A7D2A6C29322FA
:100A9700D293C2A6C2A77553C87554E07555C41240
:0E0AA700077D7F2A1207C5D2A7D2A6C29322CE
:100AB500D293C2A6C2A77553C87554E07555C41222
:0E0AC500077D7F1C1207C5D2A7D2A6C29322BE
:100AD300D293C2A6C2A77553C87554E07555C51203
:0E0AE300077D7F2A1207C5D2A7D2A6C2932292
:100AF100D293C2A6C2A77553C87554E07555C512E5
:0E0B0100077D7F1C1207C5D2A7D2A6C2932281
:100B0F00D293C2A6C2A77553C87554E07555C612C5
:0E0B1F00077D7F2A1207C5D2A7D2A6C2932255
:100B2D00D293C2A6C2A77553C87554E07555C612A7
:0E0B3D00077D7F1C1207C5D2A7D2A6C2932245
:10055A0020910D0551E551B47803E4F551C200220A
:10056A00200038D200E551D394234012E551D394A8
:10057A0050500BE52825E0F5285328FE8010E55158
:10058A00D394504010E52825E0F528432801053981
:10059A00E4F55080020550E4F551220550E550C3B8
:0C05AA00943C4007E4F539D200F5312202
:10091600E53964087030F539742A2531F8A628E5DA
:10092600317009E52AB4C80475310122E531B401F4
:1009360009E52BB4E00475310222E531B40204D294
:07094600068000E4F53122F8
:1005B6007553C87554E07555C1E4F561E4F5627488
:1005C600532561F8E630E70AC2A27D2A7C007F2423
:1005D6008008C2A27D2A7C007F171209A9D2A274C4
:1005E600532561F8C000E625E0D000F67D2A7C00A0
:1005F6007F0F1209A90562E562C3940840C105612F
:07060600E561C3940340B558
:01060D0022CA
:10060E007553C87554E07555C1E4F563E4F564742B
:10061E00532563F8E630E70AC2A27D2A7C007F24C8
:10062E008008C2A27D2A7C007F171209A9D2A2746B
:10063E00532563F8C000E625E0D000F67D2A7C0045
:10064E007F0F1209A90564E564C3940840C10563D0
:07065E00E563C3940340B5FE
:010665002272
:100666007553C87554E07555C1E4F565E4F56674CF
:10067600532565F8E630E70AC2A27D1C7C007F247C
:100686008008C2A27D1C7C007F171209A9D2A27421
:10069600532565F8C000E625E0D000F67D1C7C00F9
:1006A6007F0F1209A90566E566C3940840C1056572
:0706B600E565C3940340B5A4
:0106BD00221A
:1006BE007553C87554E07555C1E4F567E4F5687473
:1006CE00532567F8E630E70AC2A27D2A7C007F2414
:1006DE008008C2A27D2A7C007F171209A9D2A274BB
:1006EE00532567F8C000E625E0D000F67D2A7C0091
:1006FE007F0F1209A90568E568C3940840C1056714
:07070E00E567C3940340B549
:0107150022C1
:100716007553C87554E07555C1E4F569E4F56A7416
:10072600532569F8E630E70AC2A37D2A7C007F22BA
:100736008008C2A37D2A7C007F171209A9D2A37460
:10074600532569F8C000E625E0D000F67D2A7C0036
:100756007F0F1209A9056AE56AC3940840C10569B5
:07076600E569C3940340B5EF
:01076D002269
:100189008E6B8F6CC3E56C94A4E56B9402400CD222
:10019900947F1C1208AA7F3C020226C3E56C94A234
:1001A900E56B94025016C3E56C9491E56B9402409B
:1001B9000BD2947F0A1208AA7F648061C3E56C940C
:1001C9008FE56B94025016C3E56C947CE56B940241
:1001D900400BD2947F091208AA7F648040C3E56C62
:1001E900947AE56B94025016C3E56C9463E56B94BD
:1001F90002400BD2947F081208AA7F64801FC3E5CE
:100209006C9461E56B9402501AC3E56C9450E56BEC
:100219009402400FD2947F071208AA7F64120C2A15
:10022900C29422C3E56C944EE56B94025003120DFF
:0202390003229E
:10041300E4FAEF6405703343F620C2F8C2F9D2FA66
:1004230043E180C2FCD2FBADF8EDC413135403FDCA
:10043300AFE2AB07EB7E007802C333CE33CED8F9FD
:100443007C002DFBEC3EAF03FE22EF6406703443C9
:10045300F640D2F8C2F9D2FA43E180C2FCD2FBAD36
:10046300F8EDC413135403FDAFE27A00AB07EB7E40
:10047300007802C333CE33CED8F97C002DFBEC3E9B
:03048300FEAF03C6
:010486002253
:040487008C088D0947
:10048B007E007C2B7D3312015CE47B0CFAF9F812B5
:10049B0000CA8F0D8E0C8D0B8C0AC3E49FFFE49E5C
:1004AB00F51B8F1DAE08AF09EE3395E0FDFCE47B29
:1004BB000BFAF9F812003FE47B0CFAF9F81200CAB8
:1004CB008F118E108D0F8C0EC3E49FFFE49EF51CD5
:1004DB008F1E758911851B8C851D8A851C8D851E2C
:0D04EB008BD2A9D28CD2ABD28ED2BBD2AFB5
:0104F80022E1
:10097F007E007C2B7D3312015CE47B0CFAF9F812BC
:10098F0000CA8F1A8E198D188C17C3E49FFFE49E2F
:09099F00F51B8F1D758921D28C16
:0109A800222C
:040E2D0043870122D4
:0300000002038771
:0C038700787FE4F6D8FD75816C0203CE8F
:10002600BB010689828A83E0225002E722BBFE02D8
:09003600E32289828A83E493220B
:10003F00E88FF0A4CC8BF0A42CFCE98EF0A42CFC60
:10004F008AF0EDA42CFCEA8EF0A4CDA8F08BF0A4DE
:10005F002DCC3825F0FDE98FF0A42CCD35F0FCEB3D
:10006F008EF0A4FEA9F0EB8FF0A4CFC5F02ECD3902
:0F007F00FEE43CFCEAA42DCE35F0FDE43CFC226F
:10008E0075F008758200EF2FFFEE33FECD33CDCC29
:10009E0033CCC58233C5829BED9AEC99E5829840AC
:1000AE000CF582EE9BFEED9AFDEC99FC0FD5F0D689
:1000BE00E4CEFBE4CDFAE4CCF9A88222B800C1B9B3
:1000CE000059BA002DEC8BF084CFCECDFCE5F0CBF1
:1000DE00F97818EF2FFFEE33FEED33FDEC33FCEB2A
:1000EE0033FB10D703994004EB99FB0FD8E5E4F9E5
:1000FE00FA227818EF2FFFEE33FEED33FDEC33FCD2
:10010E00C933C910D7059BE99A4007EC9BFCE99AC5
:10011E00F90FD8E0E4C9FAE4CCFB2275F010EF2F0A
:10012E00FFEE33FEED33FDCC33CCC833C810D7070A
:10013E009BEC9AE899400AED9BFDEC9AFCE899F845
:0E014E000FD5F0DAE4CDFBE4CCFAE4C8F922D8
:10015C00EC8EF0A4CCC5F0CCCDF8EFA4CEC5F02D30
:10016C00FDE43CFCE8A42EC8C5F03DFDE43CFCEFEE
:0D017C00A4FFE5F028FEE43DFDE43CFC227C
:100393000209D1E493A3F8E493A34003F68001F2A6
:1003A30008DFF48029E493A3F85407240CC8C3336B
:1003B300C4540F4420C8834004F456800146F6DF3A
:1003C300E4800B010204081020408090023BE47E8D
:1003D300019360BCA3FF543F30E509541FFEE4932F
:1003E300A360010ECF54C025E060A840B8E493A3F6
:1003F300FAE493A3F8E493A3C8C582C8CAC583CA21
:10040300F0A3C8C582C8CAC583CADFE9DEE780BED8
:0102E100001C
:00000001FF
